:100000000C94A3000C94CB000C94CB000C94CB006C
:100010000C94CB000C94CB000C94CB000C94CB0034
:100020000C94CB000C94CB000C94CB000C94CB0024
:100030000C94CB000C94CB000C94CB000C94CB0014
:100040000C9425040C94CB000C9495040C946F0430
:100050000C94CB000C94CB000C94CB000C94CB00F4
:100060000C94CB000C94CB0007634236B79BD8A707
:100070001A39685618AEBAAB558C1D3CB7CC5763CD
:10008000BD6DEDFD753EF6177231BF000000803F7B
:1000900008000000BE922449123EABAAAA2ABECD97
:1000A000CCCC4C3E00000080BEABAAAAAA3E000009
:1000B0000000BF000000803F000000000008417801
:1000C000D3BB4387D1133D190E3CC3BD4282AD2B38
:1000D0003E68EC8276BED98FE1A93E4C80EFFFBE30
:1000E00001C4FF7F3F00000000000000000024006A
:1000F00027002A000000000023002600290000003D
:100100000000250028002B00040404040404040457
:1001100002020202020203030303030301020408B2
:100120001020408001020408102001020408102061
:1001300000000008000201000003040700000000A6
:1001400000000000C70411241FBECFEFD8E0DEBFBF
:10015000CDBF22E0AAE3B2E001C01D92AA3FB207E0
:10016000E1F712E0A0E0B1E0E6EEFDE102C00590AB
:100170000D92AA33B107D9F710E0C3EAD0E004C06A
:100180002197FE010E94F90CC23AD107C9F70E94DB
:10019000FC040C94F10E0C94000090E0FC01E05D76
:1001A000FE4F2491FC01E45EFE4F3491FC01E85FB8
:1001B000FE4FE491EE23C9F0222339F0233001F100
:1001C000A8F4213019F1223029F1F0E0EE0FFF1FE1
:1001D000E250FF4FA591B4918FB7F894EC91611163
:1001E00026C030953E233C938FBF08952730A9F059
:1001F0002830C9F0243049F7809180008F7D03C0FA
:10020000809180008F7780938000DFCF84B58F77D7
:1002100084BDDBCF84B58F7DFBCF8091B0008F771D
:100220008093B000D2CF8091B0008F7DF9CF3E2B6C
:10023000DACF8E3008F08E508770806480937C0017
:1002400080917A00806480937A0080917A0086FDA4
:10025000FCCF809178009091790008953FB7F89491
:100260008091410290914202A0914302B0914402D8
:1002700026B5A89B05C02F3F19F00196A11DB11D01
:100280003FBFBA2FA92F982F8827BC01CD01620F3D
:10029000711D811D911D42E0660F771F881F991FF8
:1002A0004A95D1F708958F929F92AF92BF92CF92C5
:1002B000DF92EF92FF924B015C010E942E016B01D5
:1002C0007C010E942E016C197D098E099F09683EF0
:1002D000734081059105A8F321E0821A9108A108D5
:1002E000B10888EEC80E83E0D81EE11CF11C811411
:1002F0009104A104B10429F7FF90EF90DF90CF9013
:10030000BF90AF909F908F900895AF92BF92CF9281
:10031000DF92EF92FF920F931F93CF93DF936C01C5
:100320007B018B01040F151FEB015E01AE18BF08A6
:10033000C017D10759F06991D601ED91FC91019058
:10034000F081E02DC6010995892B79F7C501DF9170
:10035000CF911F910F91FF90EF90DF90CF90BF90C2
:10036000AF900895FC01538D448D252F30E0842FEC
:1003700090E0821B930B541710F0CF9608950197CD
:100380000895FC01918D828D981761F0A28DAE0FBA
:10039000BF2FB11D5D968C91928D9F5F9F73928F41
:1003A00090E008958FEF9FEF08952FB7F894809114
:1003B000450290914602A0914702B09148022FBF9A
:1003C0008093510290935202A0935302B09354022F
:1003D00089E492E00E94C10197FF26C02FB7F894EC
:1003E0008091450290914602A0914702B091480247
:1003F0002FBF40915102509152026091530270916F
:100400005402841B950BA60BB70B40914D025091E3
:100410004E0260914F027091500284179507A60713
:10042000B707B0F28FEF9FEF0895FC01918D828D99
:10043000981731F0828DE80FF11D858D90E00895B9
:100440008FEF9FEF0895FC01918D228D892F90E011
:10045000805C9F4F821B91098F739927089589E4CF
:1004600092E00E94230221E0892B09F420E0822FF0
:10047000089580E090E0892B29F00E942F028111DD
:100480000C9400000895FC01A48DA80FB92FB11D94
:10049000A35ABF4F2C91848D90E001968F739927BA
:1004A000848FA689B7892C93A089B1898C91837098
:1004B00080648C93938D848D981306C00288F38991
:1004C000E02D80818F7D80830895EF92FF920F93BE
:1004D0001F93CF93DF93EC0181E0888F9B8D8C8DF0
:1004E00098131AC0E889F989808185FF15C09FB7E4
:1004F000F894EE89FF896083E889F98980818370A7
:10050000806480839FBF81E090E0DF91CF911F9155
:100510000F91FF90EF900895F62E0B8D10E00F5F76
:100520001F4F0F731127E02E8C8D8E110CC00FB64C
:1005300007FCFACFE889F989808185FFF5CFCE01E4
:100540000E944302F1CFEB8DEC0FFD2FF11DE35A1A
:10055000FF4FF0829FB7F8940B8FEA89FB89808167
:100560008062CFCFCF93DF93EC01888D8823B9F0E1
:10057000AA89BB89E889F9898C9185FD03C08081AE
:1005800086FD0DC00FB607FCF7CF8C9185FFF2CF2B
:10059000808185FFEDCFCE010E944302E9CFDF913C
:1005A000CF910895FC0101900020E9F73197AF0148
:1005B000481B590BBC0189E492E00C9485018F9291
:1005C0009F92AF92BF920F931F93CF93DF93CDB7BC
:1005D000DEB7A1970FB6F894DEBF0FBECDBF19A24C
:1005E000423008F44AE08E010F5D1F4F842E912C9B
:1005F000B12CA12CA50194010E94D70CE62FB901C2
:10060000CA01EA30F4F4E05DD801EE938D01232BAA
:10061000242B252B79F790E080E0109719F0CD017D
:100620000E94D202A1960FB6F894DEBF0FBECDBFD6
:10063000DF91CF911F910F91BF90AF909F908F90BE
:100640000895E95CE1CF0C94D202CF93DF930E942E
:10065000D202EC0188E191E00E94D2028C0F9D1F32
:10066000DF91CF9108954F925F926F927F928F9218
:100670009F92AF92BF92CF92DF92EF92FF926B0167
:100680007C01AC019B010E949D0B8823C1F08BE192
:1006900091E00E94D2027C0188E191E00E94D202A6
:1006A0008E0D9F1DFF90EF90DF90CF90BF90AF9089
:1006B0009F908F907F906F905F904F90089546012C
:1006C0005701E894B7F82FEF3FEF4FE75FE7C50119
:1006D000B4010E949D0B81110DC02FEF3FEF4FE73A
:1006E0005FE7C501B4010E94D50818161CF48FE11C
:1006F00091E0CFCF2FEF3FEF4FE75FE4C701B601A7
:100700000E94480B18161CF483E291E0C2CF2FEF31
:100710003FEF4FE75FECC701B6010E94D50887FDA8
:10072000F3CF20E030E0A901C701B6010E94D5084F
:10073000B12CA12C87FF0AC06DE289E492E00E94EF
:1007400065025C01F7FAF094F7F8F0942AE037EDCF
:1007500043EA5BE3C701B6010E94340A2B013C0166
:100760000E94190B6B017C010E94DA089B01AC010D
:10077000C301B2010E94330A2B013C014AE0C701C8
:10078000B6010E94DF027C01EA0CFB1C6EE289E4E8
:1007900092E00E946502E80EF91E20E030E040E29F
:1007A00051E4C301B2010E943B092B013C010E94AC
:1007B000190B4B01B12CA12C4AE0C501B4010E94D8
:1007C000DF02E80EF91EC501B4010E94DA089B01A0
:1007D000AC01C301B2010E94330A20E030E040E2E4
:1007E00051E40E943B090E94190B90E080E04AE02E
:1007F0000E94DF02E80EF91E4FCF0F931F93CF9395
:10080000DF93EC0188819981009759F02A813B811F
:100810002617370730F081E0DF91CF911F910F91BC
:1008200008958B016F5F7F4F0E94240E009759F04F
:10083000998388831B830A832C813D81232B59F75D
:10084000FC011082E8CF80E0E7CF1F920F920FB635
:100850000F9211242F933F938F939F93AF93BF9346
:100860008091450290914602A0914702B0914802C2
:100870003091400223E0230F2D3758F50196A11D3A
:10088000B11D209340028093450290934602A093AD
:100890004702B09348028091410290914202A09198
:1008A0004302B09144020196A11DB11D8093410203
:1008B00090934202A0934302B0934402BF91AF9140
:1008C0009F918F913F912F910F900FBE0F901F908E
:1008D000189526E8230F0296A11DB11DD2CF1F92B5
:1008E0000F920FB60F9211242F933F934F935F9364
:1008F0006F937F938F939F93AF93BF93EF93FF93E8
:1009000089E492E00E944302FF91EF91BF91AF9181
:100910009F918F917F916F915F914F913F912F9117
:100920000F900FBE0F901F9018951F920F920FB649
:100930000F9211242F938F939F93EF93FF93E09146
:100940005902F0915A028081E0915F02F0916002B9
:1009500082FD1BC09081809162028F5F8F73209116
:100960006302821741F0E0916202F0E0E75BFD4F25
:10097000958F80936202FF91EF919F918F912F91BC
:100980000F900FBE0F901F9018958081F4CFE9E46F
:10099000F2E01382128288EE93E0A0E0B0E084835C
:1009A0009583A683B7838AE091E09183808385EC69
:1009B00090E09587848784EC90E09787868780EC29
:1009C00090E0918B808B81EC90E0938B828B82EC1A
:1009D00090E0958B848B86EC90E0978B868B118EC4
:1009E000128E138E148E1092F5028CE390E0909389
:1009F000E7028093E6020895CF93DF93CDB7DEB789
:100A00002C970FB6F894DEBF0FBECDBF789484B597
:100A1000826084BD84B5816084BD85B5826085BDFA
:100A200085B5816085BD80916E00816080936E0088
:100A3000109281008091810082608093810080917A
:100A4000810081608093810080918000816080932B
:100A500080008091B10084608093B1008091B000EB
:100A600081608093B00080917A00846080937A00E6
:100A700080917A00826080937A0080917A00816010
:100A800080937A0080917A00806880937A00109237
:100A9000C100E0915902F0915A0282E08083E09116
:100AA0005502F09156021082E0915702F0915802DF
:100AB0008FEC808310926102E0915D02F0915E0202
:100AC00086E08083E0915B02F0915C02808180612E
:100AD0008083E0915B02F0915C028081886080837A
:100AE000E0915B02F0915C02808180688083E091FC
:100AF0005B02F0915C0280818F7D808360ED77E006
:100B000080E090E00E945301BEE18B2EB1E09B2E6D
:100B10001AE0A12E11E0B12E00E9402E5524539485
:100B2000612C712C4AE068EE73E080E090E00E9456
:100B3000DF0288E191E00E94D2026091E6027091AA
:100B4000E70290E080E04AE00E94DF0288E191E065
:100B50000E94D20280913E0290913F022091E602D3
:100B60003091E7028217930719F0892B09F0BBC176
:100B70008091F502882309F0F894F401F490F501CE
:100B80008491E82FF0E0EE0FFF1FEC50FF4F05912E
:100B90001491F4012491F5018491882399F090E057
:100BA000880F991FFC01E651FF4FA591B491FC01FC
:100BB000E250FF4F859194918FB7F8949C91292B27
:100BC0002C938FBF60E082E00E94CD0062E170E074
:100BD00080E090E00E94530161E082E00E94CD003D
:100BE000F4014491F50184918823C9F090E0880FC5
:100BF000991FFC01E651FF4FA591B491FC01E25011
:100C0000FF4F259134915FB7F8949C91842F809584
:100C100098239C93D9019C9189238C935FBF80E298
:100C200093E0F80120812F2109F4A0C10197C9F7B1
:100C30008091F5028111F3C18091F0028F7780934A
:100C4000F0021091F2021F771093F202682F70E009
:100C500090E080E00E94DA086093E8027093E90275
:100C60008093EA029093EB02612F70E090E080E0C5
:100C70000E94DA086093EC027093ED028093EE021A
:100C80009093EF0281E491E00E9423036091EC02D3
:100C90007091ED028091EE029091EF020E94330379
:100CA000C090EC02D090ED02E090EE02F090EF02E6
:100CB00020E030E048ED51E4C701B6010E94D508BC
:100CC00087FFAFC180E591E00E94230382E691E0B7
:100CD0000E94250364E670E080E090E00E945301EA
:100CE00088E891E00E9423036091E8027091E90294
:100CF0008091EA029091EB020E943303C090E802D7
:100D0000D090E902E090EA02F090EB0220E030E0BF
:100D10004CE852E4C701B6010E94D50887FF93C191
:100D200083E891E00E94230382E991E00E94250379
:100D300064E670E080E090E00E9453018EE00E9443
:100D40001901BC01990F880B990B0E94DC0820E067
:100D500030E040EA50E40E943B0920E030EC4FE7ED
:100D600054E40E94A00A6B017C01AC019B0160E08D
:100D700070E080EA90E40E94330A69877A878B8763
:100D80009C8723E333E343EB50E4C701B6010E94A1
:100D9000A00A9B01AC0169857A858B859C850E94A0
:100DA000A00A20E030E04AE754E40E943B090E9498
:100DB000120B77FF5AC110923A0210923B02109226
:100DC0003C0210923D0220E030E048E454E460919F
:100DD0003A0270913B0280913C0290913D020E9448
:100DE000480B181644F48DEA91E00E94230387EB28
:100DF00091E00E94250382EB91E00E942303609121
:100E00003A0270913B0280913C0290913D020E9417
:100E1000330364E670E080E090E00E9453018FE0CD
:100E20000E941901BC01990F880B990B0E94DC08E4
:100E300020E030EC4FE754E40E94A00A20E030E0CC
:100E400048EC52E40E943B099B01AC0160E070E079
:100E500088EC92E40E94330A6B017C0188ED91E0FA
:100E60000E942303C701B6010E94330320E030E053
:100E700040EA51E4C701B6010E94D50887FF08C0C7
:100E800083ED91E00E94230386EE91E00E9425030A
:100E900064E670E080E090E00E94530180E10E94EF
:100EA00019010DE311E08B3E91053CF002E311E0E6
:100EB0008432924014F407E211E087E092E00E944D
:100EC0002303C8010E9425030D53114041F082E025
:100ED00092E00E94230383E192E00E942503109296
:100EE0003F0210923E0289E492E00E94230218160B
:100EF00019060CF0FEC01A8219821C821B821E8207
:100F00001D8270E060E0CE0101960E94FD03298100
:100F10003A818111C5C02115310519F0C9010E941E
:100F20009B0D1A8219821E821D821C821B820E94C6
:100F3000D50197FDBDC08F8318860D811E810F5F7F
:100F40001F4FB801CE0101960E94FD03882379F35B
:100F500029813A818D819E81BE01695F7F4F820F19
:100F6000931F0E94EA0E1E830D83E1CF80E991E07A
:100F7000D8012C912F2119F40197D1F759CE80E98E
:100F800091E0F80120812F21A9F10197D1F750CEEE
:100F90006D2DCC2009F44CCED8017C91D72EDF20CA
:100FA00031F5662321F1B8E2CB1231C084179507E1
:100FB00008F4AC01C301B201641B750B81099109EE
:100FC00022E095958795779567952A95D1F79B01AE
:100FD000E69551F48E2D90E088519D4FDC011896D6
:100FE000FC93E394F0E0E0E8CA9480E991E0019793
:100FF00079F61ECEE12CF0E0E0E830E020E080E978
:1010000091E040E951E060E078E2C72EC5CFBA0137
:10101000621B730B68177907D8F2FE2BD9CF78942F
:101020000BCE20E030E040E052E4C701B6010E9460
:10103000480B18160CF04ECE80E591E00E94230379
:1010400082E791E045CE20E030E044EB52E4C70176
:10105000B6010E94480B18160CF06ACE83E891E0A6
:101060000E9423038FE991E061CE072E000C880BCC
:10107000990B0E94DC0822EF35ED43EB5FEB0E94F9
:101080004D0B24E136E04FE35BE40E943B096093A3
:101090003A0270933B0280933C0290933D0293CEC0
:1010A0001E821D826AE171E0C9010E94EA0E3FCFF3
:1010B000C980DA80C114D10431F00D811E8176011E
:1010C0000115110599F58CE292E00E9423034D81F0
:1010D0005E8169817A8189E492E00E94850188E1DC
:1010E00091E00E94D20289819A81009711F00E94BA
:1010F0009B0D80913E0290913F02019690933F029A
:1011000080933E0268EE73E080E090E00E9453011D
:1011100080E090E0892B09F405CD0E942F028823FE
:1011200009F400CD0E940000FDCC71011701FFEF12
:101130002F1A3F0AD7018C91082E000C990B0E94A0
:10114000CC08892B91F7015011090C0D1D1DF801D8
:101150008081082E000C990B0E94CC08892B31F05D
:101160000E151F0518F001501109F1CFA8014F5FAE
:101170005F4F4E195F095E834D83CE14DF0420F468
:10118000B701C6010E94E10EE981FA818D819E813D
:10119000E80FF91F108297CF91110C94A8098032A3
:1011A00019F089508550C8F708950E94170908F46E
:1011B00081E00895E89409C097FB3EF490958095EE
:1011C000709561957F4F8F4F9F4F9923A9F0F92F0D
:1011D00096E9BB279395F695879577956795B7958B
:1011E000F111F8CFFAF4BB0F11F460FF1BC06F5F71
:1011F0007F4F8F4F9F4F16C0882311F096E911C083
:10120000772321F09EE8872F762F05C0662371F0A3
:1012100096E8862F70E060E02AF09A95660F771FB7
:10122000881FDAF7880F9695879597F90895990F93
:101230000008550FAA0BE0E8FEEF16161706E807A0
:10124000F907C0F012161306E407F50798F0621BC1
:10125000730B840B950B39F40A2661F0232B242B96
:10126000252B21F408950A2609F4A140A6958FEFB5
:10127000811D811D08950E944E090C94C2090E948F
:10128000B40938F00E94BB0920F0952311F00C94AA
:10129000AB090C94B10911240C94F6090E94D309EE
:1012A00070F3959FC1F3950F50E0551F629FF001B9
:1012B000729FBB27F00DB11D639FAA27F00DB11DD2
:1012C000AA1F649F6627B00DA11D661F829F22275B
:1012D000B00DA11D621F739FB00DA11D621F839FE2
:1012E000A00D611D221F749F3327A00D611D231FB8
:1012F000849F600D211D822F762F6A2F11249F5706
:1013000050409AF0F1F088234AF0EE0FFF1FBB1F08
:10131000661F771F881F91505040A9F79E3F5105C7
:1013200080F00C94AB090C94F6095F3FE4F3983E0F
:10133000D4F3869577956795B795F795E7959F5F71
:10134000C1F7FE2B880F911D9695879597F9089503
:1013500099278827089597F99F6780E870E060E0F3
:1013600008959FEF80EC089500240A94161617063E
:1013700018060906089500240A9412161306140686
:1013800005060895092E0394000C11F4882352F0E9
:10139000BB0F40F4BF2B11F460FF04C06F5F7F4FA1
:1013A0008F4F9F4F089557FD9058440F551F59F088
:1013B0005F3F71F04795880F97FB991F61F09F3F42
:1013C00079F087950895121613061406551FF2CF6B
:1013D0004695F1DF08C0161617061806991FF1CFBB
:1013E00086957105610508940895E894BB276627E2
:1013F0007727CB0197F908952F923F924F925F92F2
:101400006F927F928F929F92AF92BF92CF92DF9214
:10141000EF92FF920F931F93CF93DF93CDB7DEB779
:10142000CA1BDB0B0FB6F894DEBF0FBECDBF09940D
:101430002A88398848885F846E847D848C849B8464
:10144000AA84B984C884DF80EE80FD800C811B8172
:10145000AA81B981CE0FD11D0FB6F894DEBF0FBEA1
:10146000CDBFED0108955058BB27AA270E944B0A13
:101470000C94C2090E94B40938F00E94BB0920F004
:1014800039F49F3F19F426F40C94B1090EF4E09559
:10149000E7FB0C94AB09E92F0E94D30958F3BA1764
:1014A000620773078407950720F079F4A6F50C947A
:1014B000F5090EF4E0950B2EBA2FA02D0B01B90102
:1014C00090010C01CA01A0011124FF27591B99F0BA
:1014D000593F50F4503E68F11A16F040A22F232FC6
:1014E000342F4427585FF3CF469537952795A79516
:1014F000F0405395C9F77EF41F16BA0B620B730BBD
:10150000840BBAF09150A1F0FF0FBB1F661F771F2D
:10151000881FC2F70EC0BA0F621F731F841F48F4E2
:10152000879577956795B795F7959E3F08F0B0CF6B
:101530009395880F08F09927EE0F97958795089552
:101540000E94B40A0C94C2090E94BB0958F00E9480
:10155000B40940F029F45F3F29F00C94AB09511114
:101560000C94F6090C94B1090E94D30968F39923ED
:10157000B1F3552391F3951B550BBB27AA2762178F
:101580007307840738F09F5F5F4F220F331F441F9C
:10159000AA1FA9F335D00E2E3AF0E0E832D09150D0
:1015A0005040E695001CCAF72BD0FE2F29D0660FBD
:1015B000771F881FBB1F261737074807AB07B0E800
:1015C00009F0BB0B802DBF01FF2793585F4F3AF006
:1015D0009E3F510578F00C94AB090C94F6095F3FDF
:1015E000E4F3983ED4F3869577956795B795F7958C
:1015F0009F5FC9F7880F911D9695879597F9089574
:10160000E1E0660F771F881FBB1F6217730784070F
:10161000BA0720F0621B730B840BBA0BEE1F88F71E
:10162000E09508950E94190B6894B1110C94F60985
:1016300008950E94DB0988F09F5798F0B92F9927E9
:10164000B751B0F0E1F0660F771F881F991F1AF0AD
:10165000BA95C9F714C0B13091F00E94F509B1E014
:1016600008950C94F509672F782F8827B85F39F013
:10167000B93FCCF3869577956795B395D9F73EF446
:1016800090958095709561957F4F8F4F9F4F0895EE
:101690000E94170908F48FEF0895FA01EE0FFF1F5B
:1016A000309621053105A1F16115710561F480388D
:1016B000BFE39B0749F168949038810561F0803859
:1016C000BFEF9B0741F099234AF5FF3FE105310544
:1016D000210519F1E8940894E795D901AA2329F482
:1016E000AB2FBE2FF85FD0F310C0FF5F70F4A6954C
:1016F000E0F7F73950F019F0FF3A38F49F779F93ED
:101700000DD00F9007FC9058089546F00C94B10945
:1017100060E070E080E89FE308954FE79F775F9374
:101720004F933F932F930E944D0C2F913F914F91D8
:101730005F910E943B090C94AA0B0E941709880B29
:10174000990B089529F416F00C94AB090C94F50943
:101750000C94B1090E94DB09A8F39638A0F707F8AA
:101760000F92E8942BE33AEA48EB5FE70E945109B5
:101770000F920F920F924DB75EB70F920E94950C89
:10178000E8E6F0E00E94DC0B4F915F91EF91FF9152
:10179000E595EE1FFF1F49F0FE57E0684427EE0F66
:1017A000441FFA95E1F74195550B0E940F0C0F90DD
:1017B00007FE0C94030C0895DF93CF931F930F93B0
:1017C000FF92EF92DF927B018C01689406C0DA2EC3
:1017D000EF010E944E09FE01E894A59125913591F3
:1017E00045915591A6F3EF010E944B0AFE01970126
:1017F000A801DA9469F7DF90EF90FF900F911F91A5
:10180000CF91DF9108959B01AC0160E070E080E82A
:101810009FE30C94A00A0C94AB090C94C90C0E9491
:10182000DB09D8F39923C9F3940F511DA3F3915009
:10183000504094F059F0882332F0660F771F881FCC
:1018400091505040C1F79E3F51052CF7880F911DD4
:101850009695879597F908955F3FACF0983E9CF078
:10186000BB27869577956795B79508F4B1609395F2
:10187000C1F7BB0F58F711F460FFE8CF6F5F7F4FE0
:101880008F4F9F4FE3CF0C94F60916F00C94C90CC0
:101890000C94B10968940C94AB090E94DB09A8F37D
:1018A0009923C1F3AEF3DF93CF931F930F93FF926E
:1018B000C92FDD2788232AF02197660F771F881FFD
:1018C000DAF720E030E040E85FEB9FE3883920F072
:1018D000803E38F021968F770E94340AE0E9F0E0EC
:1018E00004C00E94340AEDEBF0E00E94DC0B8B0197
:1018F000BE01EC01FB2E6F5771097595771F880BA0
:10190000990B0E94DC0828E132E741E35FE30E9483
:101910004E09AF2D9801AE01FF900F911F91CF910D
:10192000DF910E944B0A0C94C209FA01DC01AA0F54
:10193000BB1F9B01AC01BF5728F422273327442744
:10194000507820C0B75190F4AB2F002446953795BE
:101950002795011CA395D2F3002071F0220F331FAD
:10196000441FB395DAF30ED00C94330A613071053D
:10197000A0E88A07B94630F49B01AC0166277727B7
:1019800088279078309621F02083318342835383D7
:1019900008959F3F31F0915020F487957795679592
:1019A000B795880F911D9695879597F90895A1E2AF
:1019B0001A2EAA1BBB1BFD010DC0AA1FBB1FEE1FC9
:1019C000FF1FA217B307E407F50720F0A21BB30B14
:1019D000E40BF50B661F771F881F991F1A9469F790
:1019E00060957095809590959B01AC01BD01CF01EC
:1019F0000895EE0FFF1F0590F491E02D09940F93C9
:101A00001F93CF93DF938230910510F482E090E032
:101A1000E091F802F091F90230E020E0B0E0A0E0BF
:101A2000309799F42115310509F44AC0281B390B68
:101A300024303105D8F58A819B816115710589F1C2
:101A4000FB0193838283FE0111C040815181028199
:101A5000138148175907E0F04817590799F4109770
:101A600061F012960C93129713961C933296CF0145
:101A7000DF91CF911F910F9108950093F802109379
:101A8000F902F4CF2115310551F04217530738F010
:101A9000A901DB019A01BD01DF01F801C1CFEF010E
:101AA000F9CF9093F9028093F802CDCFFE01E20FB7
:101AB000F31F819391932250310939832883D7CF23
:101AC0002091F6023091F702232B41F4209102017C
:101AD000309103013093F7022093F6022091000128
:101AE000309101012115310541F42DB73EB74091E8
:101AF000040150910501241B350BE091F602F09191
:101B0000F702E217F307A0F42E1B3F0B2817390743
:101B100078F0AC014E5F5F4F2417350748F04E0F49
:101B20005F1F5093F7024093F602819391939FCFEA
:101B3000F0E0E0E09CCFCF93DF930097E9F0FC0169
:101B4000329713821282A091F802B091F902ED014E
:101B500030E020E01097A1F420813181820F931FA3
:101B60002091F6023091F7022817390709F061C079
:101B7000F093F702E093F602DF91CF910895EA0126
:101B8000CE17DF07E8F54A815B819E0141155105BB
:101B9000B1F7E901FB83EA8349915991C40FD51F3D
:101BA000EC17FD0761F4808191810296840F951FE7
:101BB000E90199838883828193819B838A83F0E002
:101BC000E0E012968D919C9113970097B9F52D91B5
:101BD0003C911197CD010296820F931F2091F6023E
:101BE0003091F7022817390739F6309751F51092DE
:101BF000F9021092F802B093F702A093F602BCCF5C
:101C0000D383C28340815181840F951FC817D907A0
:101C100061F44E5F5F4F88819981480F591F51834E
:101C200040838A819B81938382832115310509F04A
:101C3000B0CFF093F902E093F8029ECFFD01DC01F2
:101C4000C0CF13821282D7CFB0E0A0E0EAE2FEE07C
:101C50000C94FE098C01009751F4CB010E94FF0CFB
:101C60008C01C801CDB7DEB7E0E10C941A0AFC0183
:101C7000E60FF71F9C0122503109E217F30708F421
:101C80009DC0D901CD91DC911197C617D70798F067
:101C9000C530D10530F3CE0104978617970708F3B6
:101CA000C61BD70B2297C193D1936D937C93CF0121
:101CB0000E949B0DD6CF5B01AC1ABD0A4C018C0E65
:101CC0009D1EA091F802B091F902512C412CF12CEB
:101CD000E12C109731F58091F6029091F70288156A
:101CE000990509F05CC04616570608F058C0809167
:101CF000000190910101009741F48DB79EB740918A
:101D0000040150910501841B950BE817F90708F0B1
:101D100055C0F093F702E093F602F90171836083F6
:101D2000A0CF8D919C91119712966C90129713965B
:101D30007C901397A815B90559F56C0142E0C40EC3
:101D4000D11CCA14DB0420F1AC014A195B09DA0189
:101D50001296159780F06282738251834083D90175
:101D60006D937C93E114F10471F0D7011396FC9309
:101D7000EE93129776CF22968C0F9D1FF9019183D7
:101D80008083F301EFCFF093F902E093F80269CF7B
:101D90004816590608F42C017D01D3019ACFCB01D6
:101DA0000E94FF0C7C01009749F0AE01B8010E942F
:101DB000E10EC8010E949B0D870153CF10E000E0A7
:101DC00050CFFB01DC0102C001900D924150504008
:101DD000D8F70895FB01DC0101900D920020E1F796
:061DE0000895F894FFCF06
:101DE6000000FA0280000000000065028501B201D1
:101DF600B2022302C10115020D0A006E616E00696E
:101E06006E66006F7666004C696768742052616979
:101E16006E004865617679205261696E0044727978
:101E26000074656D706572617475726565653A00FA
:101E3600416C61726D74656D706572617475726501
:101E46003A004C6F772054656D70657261747572D7
:101E56006500486967682054656D706572617475C0
:101E6600726500416C61726D68756D69646974793B
:101E76003A004C6F772068756D696469747900481B
:101E86006967682068756D696469747900416C6179
:101E9600726D6C75783A004869676820696E74657A
:101EA6006E73697479206F662073756E206C69672E
:101EB600687400416C61726D736F696C4D6F697304
:101EC600747572653A004C6F7720736F696C4D6F4D
:101ED6006973747572652050756D702073746172C4
:101EE6007400416C61726D7261696E5374617475D0
:101EF600733A004974206973205261696E696E678E
:101F060020696E206B6172616368690049207265A1
:0A1F16006365697665643A200000F7
:00000001FF
