:100000000C9462000C948A000C948A000C948A0070
:100010000C948A000C948A000C948A000C948A0038
:100020000C948A000C948A000C948A000C948A0028
:100030000C948A000C948A000C948A000C948A0018
:100040000C942C050C948A000C949C050C94760559
:100050000C948A000C948A000C948A000C948A00F8
:100060000C948A000C948A000000000023002600F3
:10007000290000000000240027002A0000000000E2
:10008000250028002B0004040404040404040202D4
:100090000202020203030303030301020408102007
:1000A0004080010204081020010204081020000012
:1000B0000008000201000003040700000000000027
:1000C0000000CE0511241FBECFEFD8E0DEBFCDBFAC
:1000D00011E0A0E0B1E0EAECF5E102C005900D927C
:1000E000A43AB107D9F722E0A4EAB1E001C01D9219
:1000F000AA37B207E1F710E0C2E6D0E004C02197CA
:10010000FE010E94DD0AC136D107C9F70E941A0616
:100110000C94E30A0C94000090E0FC01E255FF4FC0
:100120002491FC01E656FF4F3491FC01EA57FF4F42
:10013000E491EE23C9F0222339F0233001F1A8F431
:10014000213019F1223029F1F0E0EE0FFF1FE458C1
:10015000FF4FA591B4918FB7F894EC91611126C02F
:1001600030953E233C938FBF08952730A9F0283067
:10017000C9F0243049F7809180008F7D03C08091C1
:1001800080008F7780938000DFCF84B58F7784BD28
:10019000DBCF84B58F7DFBCF8091B0008F778093CC
:1001A000B000D2CF8091B0008F7DF9CF3E2BDACF57
:1001B000CF93DF9390E0FC01E656FF4F24918A57DE
:1001C0009F4FFC0184918823D1F090E0880F991F04
:1001D000FC01EE58FF4FA591B491FC01E458FF4F8C
:1001E000C591D49161110EC09FB7F8948C91E22F04
:1001F000E0958E238C932881E223E8839FBFDF91D3
:10020000CF9108958FB7F894EC91E22BEC938FBFC8
:10021000F6CF8E3008F08E508770806480937C001B
:1002200080917A00806480937A0080917A0086FDC4
:10023000FCCF809178009091790008953FB7F894B1
:100240008091B3019091B401A091B501B091B60134
:1002500026B5A89B05C02F3F19F00196A11DB11D21
:100260003FBFBA2FA92F982F8827BC01CD01620F5D
:10027000711D811D911D42E0660F771F881F991F18
:100280004A95D1F708958F929F92AF92BF92CF92E5
:10029000DF92EF92FF924B015C010E941E016B0105
:1002A0007C010E941E016C197D098E099F09683E20
:1002B000734081059105A8F321E0821A9108A108F5
:1002C000B10888EEC80E83E0D81EE11CF11C811431
:1002D0009104A104B10429F7FF90EF90DF90CF9033
:1002E000BF90AF909F908F900895AF92BF92CF92A2
:1002F000DF92EF92FF920F931F93CF93DF936C01E6
:100300007B018B01040F151FEB015E01AE18BF08C6
:10031000C017D10759F06991D601ED91FC91019078
:10032000F081E02DC6010995892B79F7C501DF9190
:10033000CF911F910F91FF90EF90DF90CF90BF90E2
:10034000AF900895FC01538D448D252F30E0842F0C
:1003500090E0821B930B541710F0CF9608950197ED
:100360000895FC01918D828D981761F0A28DAE0FDA
:10037000BF2FB11D5D968C91928D9F5F9F73928F61
:1003800090E008958FEF9FEF0895FC01918D828D8D
:10039000981731F0828DE80FF11D858D90E008955A
:1003A0008FEF9FEF0895FC01918D228D892F90E0B2
:1003B000805C9F4F821B91098F739927089587EB6B
:1003C00091E00E94D30121E0892B09F420E0822FE3
:1003D000089580E090E0892B29F00E94DF018111CF
:1003E0000C9400000895FC01A48DA80FB92FB11D35
:1003F000A35ABF4F2C91848D90E001968F7399275B
:10040000848FA689B7892C93A089B1898C91837038
:1004100080648C93938D848D981306C00288F38931
:10042000E02D80818F7D80830895EF92FF920F935E
:100430001F93CF93DF93EC0181E0888F9B8D8C8D90
:1004400098131AC0E889F989808185FF15C09FB784
:10045000F894EE89FF896083E889F9898081837047
:10046000806480839FBF81E090E0DF91CF911F91F6
:100470000F91FF90EF900895F62E0B8D10E00F5F17
:100480001F4F0F731127E02E8C8D8E110CC00FB6ED
:1004900007FCFACFE889F989808185FFF5CFCE0185
:1004A0000E94F301F1CFEB8DEC0FFD2FF11DE35A0C
:1004B000FF4FF0829FB7F8940B8FEA89FB89808108
:1004C0008062CFCFCF93DF93EC01888D8823B9F082
:1004D000AA89BB89E889F9898C9185FD03C080814F
:1004E00086FD0DC00FB607FCF7CF8C9185FFF2CFCC
:1004F000808185FFEDCFCE010E94F301E9CFDF912E
:10050000CF910895089590E080E00895CF93DF9310
:10051000EC0160E08E810E948C0061E08E810E947F
:100520008C0060E08E810E948C008BE891E0019746
:10053000F1F7DF91CF910895CF92DF92EF92FF9282
:100540000F931F93CF93DF936C017C0187E0E80E3C
:10055000F11CD0E0C0E0062F10E0B8010C2E02C064
:10056000759567950A94E2F76170F70181917F01B3
:100570000E948C002196C430D10579F7C601DF9125
:10058000CF911F910F91FF90EF90DF90CF900C943F
:100590008602CF92DF92EF92FF920F931F93CF9339
:1005A000DF93EC01F62E642F8C810E948C008D81EC
:1005B0008F3F19F060E00E948C000F2D10E08F85B6
:1005C00084FF25C06E0187E0C80ED11CF12CE12C00
:1005D000B8010E2C02C0759567950A94E2F7617018
:1005E000F60181916F010E948C00FFEFEF1AFF0A64
:1005F00088E0E816F10461F7CE01DF91CF911F91F9
:100600000F91FF90EF90DF90CF900C948602B8018D
:1006100084E0759567958A95E1F7CE010E949C026A
:100620006F2DCE01DF91CF911F910F91FF90EF9031
:10063000DF90CF900C949C0240E0682F84E592E01C
:100640000C94C902CF93DF93823029F49091630216
:10065000986090936302809367021092680280E42E
:100660008093690280E180936A0280E580936B0247
:1006700061E0809158020E94D800809159028F3F1A
:1006800019F061E00E94D80061E080915A020E9456
:10069000D800C4E5D2E09E01245532408091630227
:1006A00084FD0BC084E090E021962817390744F4BC
:1006B00061E08E810E94D800EECF88E090E0F4CF18
:1006C0008BE39DE00197F1F760E0809158020E9472
:1006D0008C0060E080915A020E948C008091590247
:1006E0008F3F19F060E00E948C008091630284FDCE
:1006F00039C063E084E592E00E949C02CBE4D6E43A
:10070000CE010197F1F763E084E592E00E949C023C
:100710002197F1F763E084E592E00E949C0283E573
:1007200092E00197F1F762E084E592E00E949C027A
:100730008091630280620E941C0384E080936402C3
:100740008CE00E941C0381E00E941C038BE39FE16C
:100750000197F1F782E08093650286E0DF91CF9107
:100760000C941C0380620E941C038BE496E40197A6
:10077000F1F78091630280620E941C0383E592E09E
:100780000197F1F78091630280620E941C03D0CF31
:1007900041E00E94C90281E090E00895FB010190D0
:1007A0000020E9F73197AF01461B570BDC01ED91B3
:1007B000FC910280F381E02D09948F929F92AF9279
:1007C000BF92EF92FF920F931F93CF93DF93CDB71A
:1007D000DEB7A1970FB6F894DEBF0FBECDBF7C0188
:1007E000FA01CB0119A2223008F42AE08E010F5D34
:1007F0001F4F822E912CB12CA12CBF01A501940179
:100800000E94BB0AF901CA016A300CF5605DD8018B
:100810006E938D01232B242B252B79F790E080E01C
:10082000109721F0BD01C7010E94CE03A1960FB61B
:10083000F894DEBF0FBECDBFDF91CF911F910F9116
:10084000FF90EF90BF90AF909F908F900895695C5C
:10085000DECF2F923F924F925F926F927F928F9254
:100860009F92AF92BF92CF92DF92EF92FF921F932F
:10087000CF93DF93EC016A017B01722EAB019601ED
:10088000CB01B6010E94B60A6EE171E0811126C06B
:1008900046015701E894B7F82FEF3FEF4FE75FE7C6
:1008A000C501B4010E94B60A81110CC02FEF3FEFC1
:1008B0004FE75FE7C501B4010E94E50862E271E01D
:1008C000181664F02FEF3FEF4FE75FE4C701B60162
:1008D0000E94440A1816B4F466E271E0CE01DF917A
:1008E000CF911F91FF90EF90DF90CF90BF90AF908E
:1008F0009F908F907F906F905F904F903F902F9040
:100900000C94CE032FEF3FEF4FE75FECC701B6012A
:100910000E94E50887FDE0CF20E030E0A901C70193
:10092000B6010E94E508312C212C87FF0DC0E8811B
:10093000F9810190F081E02D6DE2CE0109951C0155
:10094000F7FAF094F7F8F09410E060E070E080E0DF
:100950009FE3711641F020E030E040E251E40E9454
:10096000EA081F5FF6CFA70196010E9479082B01C4
:100970003C010E9463094B015C012AE0BC01A40117
:10098000CE010E94DD037C01E20CF31C1123E1F196
:10099000C501B4010E9492099B01AC01C301B201DF
:1009A0000E9478084B015C01E881F9810190F08197
:1009B000E02D6EE2CE010995E80EF91E115020F1EE
:1009C00020E030E040E251E4C501B4010E94490A50
:1009D0002B013C010E9463094B01B12CA12C2AE0A0
:1009E000B501A401CE010E94DD03E80EF91EC50188
:1009F000B4010E9492099B01AC01C301B2010E94A3
:100A000078084B015C01DACFC701DF91CF911F91CC
:100A1000FF90EF90DF90CF90BF90AF909F908F901E
:100A20007F906F905F904F903F902F900895CF935D
:100A3000DF93AB01BC0122E087EB91E00E94290427
:100A4000EC016AE271E087EB91E00E94CE038C0F2B
:100A50009D1FDF91CF9108951F920F920FB60F92B5
:100A600011242F933F938F939F93AF93BF938091C4
:100A7000AF019091B001A091B101B091B20130915C
:100A8000AE0123E0230F2D3758F50196A11DB11DAE
:100A90002093AE018093AF019093B001A093B10178
:100AA000B093B2018091B3019091B401A091B501CE
:100AB000B091B6010196A11DB11D8093B301909331
:100AC000B401A093B501B093B601BF91AF919F91CE
:100AD0008F913F912F910F900FBE0F901F901895FF
:100AE00026E8230F0296A11DB11DD2CF1F920F92AF
:100AF0000FB60F9211242F933F934F935F936F93F1
:100B00007F938F939F93AF93BF93EF93FF9387EB65
:100B100091E00E94F301FF91EF91BF91AF919F91FE
:100B20008F917F916F915F914F913F912F910F9096
:100B30000FBE0F901F9018951F920F920FB60F9235
:100B400011242F938F939F93EF93FF93E091C7010D
:100B5000F091C8018081E091CD01F091CE0182FD3C
:100B60001BC090818091D0018F5F8F732091D10144
:100B7000821741F0E091D001F0E0E954FE4F958FEB
:100B80008093D001FF91EF919F918F912F910F90C2
:100B90000FBE0F901F9018958081F4CFE7EBF1E026
:100BA0001382128288EE93E0A0E0B0E08483958304
:100BB000A683B78384E091E09183808385EC90E005
:100BC0009587848784EC90E09787868780EC90E017
:100BD000918B808B81EC90E0938B828B82EC90E008
:100BE000958B848B86EC90E0978B868B118E128E82
:100BF000138E148E10927902E4E5F2E013821282D1
:100C000086E191E09183808388E084838FEF858300
:100C100089E086838AE087838BE080878CE0818708
:100C20008DE082871386148615861686178681E0E6
:100C30000C942203789484B5826084BD84B581606D
:100C400084BD85B5826085BD85B5816085BD809197
:100C50006E00816080936E0010928100809181000F
:100C60008260809381008091810081608093810007
:100C7000809180008160809380008091B1008460C9
:100C80008093B1008091B00081608093B00080912A
:100C90007A00846080937A0080917A0082608093E9
:100CA0007A0080917A00816080937A0080917A0046
:100CB000806880937A001092C100E091C701F091A2
:100CC000C80182E08083E091C301F091C4011082E9
:100CD000E091C501F091C6018FEC80831092CF01A5
:100CE000E091CB01F091CC0186E08083E091C901D5
:100CF000F091CA01808180618083E091C901F09107
:100D0000CA01808188608083E091C901F091CA01A5
:100D1000808180688083E091C901F091CA0180815F
:100D20008F7D808382E00E9422034CE9242E40E0E4
:100D3000342E50E9852E99249394A12CB12C8091C6
:100D40007902882309F0F894F101D490E8E8F0E002
:100D50008491E82FF0E0EE0FFF1FE859FF4FE59078
:100D6000F49061E082E00E94D80060E082E00E949E
:100D70008C0062E170E080E090E00E94430161E05D
:100D800082E00E948C0060E082E00E94D80080E255
:100D900093E0E70128812D2121F00197D1F71DEF84
:100DA0004FC080E991E0F70120812D2121F40197C6
:100DB000D1F71CEF45C080E991E0E70128812D21A2
:100DC00049F00197D1F71BEF3BC06A2F11110DC0FD
:100DD00010E036C0712CB0E0E0E830E020E080E9BF
:100DE00091E040E951E060E018E2E701A881AD211F
:100DF00021F5662311F1183209F06FC184179507A8
:100E000008F4AC01C501B401641B750B810991099B
:100E100022E095958795779567952A95D1F79B015F
:100E2000E69541F4E72DF0E0E459FD4FB087739467
:100E3000B0E0E0E8115080E991E0019731F61EEF53
:100E400080917902882309F0789480917402E82EC9
:100E5000E894E7F8E0927402009176020F7700932D
:100E600076026E2D70E090E080E00E94920960931F
:100E70006C0270936D0280936E0290936F02602FEC
:100E800070E090E080E00E9492096093700270939D
:100E90007102809372029093730280917502909117
:100EA0007702890F8E0D800F9091780289131FEFC2
:100EB0006DE271E087EB91E00E94CE03C12E012E1E
:100EC000000CDD08EE08FF082AE040E050E0BA011F
:100ED000112369F06DE287EB91E00E94150244272F
:100EE0005527BA014C195D096E097F092AE087EB85
:100EF00091E00E94DD036091700270917102809117
:100F00007202909173020E9417056DE371E087EB06
:100F100091E00E94CE0360916C0270916D0280910D
:100F20006E0290916F020E94170564E670E080E007
:100F300090E00E9443018EE00E940901BC01990FDC
:100F4000880B990B0E9494096093AA017093AB01DE
:100F50008093AC019093AD0169E471E087EB91E07F
:100F60000E94CE036091AA017091AB018091AC0107
:100F70009091AD010E94170520E030E040EA50E476
:100F80006091AA017091AB018091AC019091AD018B
:100F90000E94490A20E030EC4FE754E40E94EA083E
:100FA0006093A6017093A7018093A8019093A90173
:100FB0006AE571E087EB91E00E94CE03C090A60144
:100FC000D090A701E090A801F090A901A701960197
:100FD00060E070E080EA90E40E9478082B013C0118
:100FE00020E030E040EA50E4C701B6010E94EA0880
:100FF0009B01AC01C301B2010E94EA0820E030E08D
:101000004AE754E40E94490A0E945C099B017093DC
:10101000A5016093A4016EE671E037FD02C06DE7A3
:1010200071E087EB91E00E94CE036AE271E087EB0A
:1010300091E00E94CE038FE00E9409016CE871E00C
:1010400084E592E00E94CE03E0916702E33008F06D
:101050004DC0E150F0E0EC5AFD4F848980680E9459
:101060001C036EE971E084E592E00E94CE0340919A
:10107000700250917102609172027091730222E0CD
:1010800084E592E00E9429046EEE72E080E090E038
:101090000E94430188E10E941C03E1E08091670205
:1010A0008111E0E0E195F0E0EC5AFD4F8489806821
:1010B0000E941C0368EE73E080E090E00E94430110
:1010C000E0E0F0E0EF2B09F43ACE0E94DF01882344
:1010D00009F435CE0E94000032CEBA01621B730BB8
:1010E0006817790708F49CCEBE2B9ACEE2E0B2CF07
:1010F0005058BB27AA270E9490080C940A0A0E9405
:10110000FC0938F00E94030A20F039F49F3F19F4DB
:1011100026F40C94F9090EF4E095E7FB0C94F3091E
:10112000E92F0E941B0A58F3BA1762077307840756
:10113000950720F079F4A6F50C943D0A0EF4E0959D
:101140000B2EBA2FA02D0B01B90190010C01CA0181
:10115000A0011124FF27591B99F0593F50F4503E2C
:1011600068F11A16F040A22F232F342F4427585F1E
:10117000F3CF469537952795A795F0405395C9F736
:101180007EF41F16BA0B620B730B840BBAF09150EE
:10119000A1F0FF0FBB1F661F771F881FC2F70EC08D
:1011A000BA0F621F731F841F48F487957795679560
:1011B000B795F7959E3F08F0B0CF9395880F08F04C
:1011C0009927EE0F9795879508950E94CF0908F407
:1011D00081E008950E94FE080C940A0A0E94030A06
:1011E00058F00E94FC0940F029F45F3F29F00C946C
:1011F000F30951110C943E0A0C94F9090E941B0A40
:1012000068F39923B1F3552391F3951B550BBB2735
:10121000AA2762177307840738F09F5F5F4F220F7A
:10122000331F441FAA1FA9F335D00E2E3AF0E0E871
:1012300032D091505040E695001CCAF72BD0FE2FBB
:1012400029D0660F771F881FBB1F2617370748074F
:10125000AB07B0E809F0BB0B802DBF01FF27935807
:101260005F4F3AF09E3F510578F00C94F3090C94CF
:101270003E0A5F3FE4F3983ED4F3869577956795F1
:10128000B795F7959F5FC9F7880F911D969587953C
:1012900097F90895E1E0660F771F881FBB1F62175B
:1012A00073078407BA0720F0621B730B840BBA0B19
:1012B000EE1F88F7E09508950E9463096894B111C4
:1012C0000C943E0A08950E94230A88F09F5798F0D4
:1012D000B92F9927B751B0F0E1F0660F771F881F3B
:1012E000991F1AF0BA95C9F714C0B13091F00E9455
:1012F0003D0AB1E008950C943D0A672F782F8827A6
:10130000B85F39F0B93FCCF3869577956795B3957B
:10131000D9F73EF490958095709561957F4F8F4FEA
:101320009F4F0895E89409C097FB3EF490958095EF
:10133000709561957F4F8F4F9F4F9923A9F0F92F9B
:1013400096E9BB279395F695879577956795B79519
:10135000F111F8CFFAF4BB0F11F460FF1BC06F5FFF
:101360007F4F8F4F9F4F16C0882311F096E911C011
:10137000772321F09EE8872F762F05C0662371F032
:1013800096E8862F70E060E02AF09A95660F771F46
:10139000881FDAF7880F9695879597F90895990F22
:1013A0000008550FAA0BE0E8FEEF16161706E8072F
:1013B000F907C0F012161306E407F50798F0621B50
:1013C000730B840B950B39F40A2661F0232B242B25
:1013D000252B21F408950A2609F4A140A6958FEF44
:1013E000811D811D089597F99F6780E870E060E096
:1013F00008959FEF80EC089500240A9416161706AE
:1014000018060906089500240A94121613061406F5
:1014100005060895092E0394000C11F4882352F058
:10142000BB0F40F4BF2B11F460FF04C06F5F7F4F10
:101430008F4F9F4F089557FD9058440F551F59F0F7
:101440005F3F71F04795880F97FB991F61F09F3FB1
:1014500079F087950895121613061406551FF2CFDA
:101460004695F1DF08C0161617061806991FF1CF2A
:1014700086957105610508940895E894BB27662751
:101480007727CB0197F908950E94CF0908F48FEFD1
:1014900008950E945C0A0C940A0A0E94FC0938F024
:1014A0000E94030A20F0952311F00C94F3090C9488
:1014B000F90911240C943E0A0E941B0A70F3959FAF
:1014C000C1F3950F50E0551F629FF001729FBB273B
:1014D000F00DB11D639FAA27F00DB11DAA1F649FD7
:1014E0006627B00DA11D661F829F2227B00DA11D8A
:1014F000621F739FB00DA11D621F839FA00D611D10
:10150000221F749F3327A00D611D231F849F600D30
:10151000211D822F762F6A2F11249F5750409AF059
:10152000F1F088234AF0EE0FFF1FBB1F661F771FE5
:10153000881F91505040A9F79E3F510580F00C94B0
:10154000F3090C943E0A5F3FE4F3983ED4F386958A
:1015500077956795B795F795E7959F5FC1F7FE2B50
:10156000880F911D9695879597F908950E94CF0948
:10157000880B990B0895A1E21A2EAA1BBB1BFD0133
:101580000DC0AA1FBB1FEE1FFF1FA217B307E40762
:10159000F50720F0A21BB30BE40BF50B661F771FBA
:1015A000881F991F1A9469F760957095809590959A
:1015B0009B01AC01BD01CF010895EE0FFF1F059007
:0A15C000F491E02D0994F894FFCF98
:1015CA000000000015027501A2016202D301B101F7
:1015DA00C50100000000C8037501830282026E6122
:1015EA006E00696E66006F7666000D0A0054656DBE
:1015FA00706572617475726565203D200048756D6D
:10160A006964697479203D20006469676974616C52
:10161A002076616C7565203D20002020616E616C2A
:10162A006F6720766F6C74616765203D2000476F95
:10163A006F64204E696768742E2E2E2E00476F6FD6
:10164A0064204461792E2E2E2E2E2E002020204337
:10165A004952435549542044494745535400544537
:04166A004D502000BF
:00000001FF
