:020000040000FA
:100000000C94A3000C94CB000C94CB000C94CB006C
:100010000C94CB000C94CB000C94CB000C94CB0034
:100020000C94CB000C94CB000C94CB000C94CB0024
:100030000C94CB000C94CB000C94CB000C94CB0014
:100040000C9494030C94CB000C9404040C94DE03E5
:100050000C94CB000C94CB000C94CB000C94CB00F4
:100060000C94CB000C94CB0007634236B79BD8A707
:100070001A39685618AEBAAB558C1D3CB7CC5763CD
:10008000BD6DEDFD753EF6177231BF000000803F7B
:1000900008000000BE922449123EABAAAA2ABECD97
:1000A000CCCC4C3E00000080BEABAAAAAA3E000009
:1000B0000000BF000000803F000000000008417801
:1000C000D3BB4387D1133D190E3CC3BD4282AD2B38
:1000D0003E68EC8276BED98FE1A93E4C80EFFFBE30
:1000E00001C4FF7F3F00000000000000000024006A
:1000F00027002A000000000023002600290000003D
:100100000000250028002B00040404040404040457
:1001100002020202020203030303030301020408B2
:100120001020408001020408102001020408102061
:1001300000000008000201000003040700000000A6
:1001400000000000360411241FBECFEFD8E0DEBF50
:10015000CDBF11E0A0E0B1E0E4E8F5E102C0059018
:100160000D92A038B107D9F722E0A0E8B1E001C0B4
:100170001D92AE33B207E1F710E0C3EAD0E004C04D
:100180002197FE010E94BA0AC23AD107C9F70E941C
:1001900065040C94C00A0C940000E7E3F1E024919C
:1001A000E3E2F1E09491EFE0F1E0E491EE23C9F0B5
:1001B000222339F0233001F1A8F4213019F1223043
:1001C00029F1F0E0EE0FFF1FE250FF4FA591B4912F
:1001D0002FB7F894EC91811126C090959E239C93A3
:1001E0002FBF08952730A9F02830C9F0243049F7EF
:1001F000209180002F7D03C0209180002F772093D5
:100200008000DFCF24B52F7724BDDBCF24B52F7D31
:10021000FBCF2091B0002F772093B000D2CF209158
:10022000B0002F7DF9CF9E2BDACF3FB7F8948091A5
:100230008F0190919001A0919101B091920126B50A
:10024000A89B05C02F3F19F00196A11DB11D3FBF0E
:10025000BA2FA92F982F8827BC01CD01620F711DDD
:10026000811D911D42E0660F771F881F991F4A95D7
:10027000D1F708958F929F92AF92BF92CF92DF9263
:10028000EF92FF924B015C010E9415016B017C0112
:100290000E9415016C197D098E099F09683E734003
:1002A00081059105A8F321E0821A9108A108B108FF
:1002B00088EEC80E83E0D81EE11CF11C8114910465
:1002C000A104B10429F7FF90EF90DF90CF90BF9089
:1002D000AF909F908F900895AF92BF92CF92DF9290
:1002E000EF92FF920F931F93CF93DF936C017B01EB
:1002F0008B01040F151FEB015E01AE18BF08C0177C
:10030000D10759F06991D601ED91FC910190F081EE
:10031000E02DC6010995892B79F7C501DF91CF91B1
:100320001F910F91FF90EF90DF90CF90BF90AF9013
:100330000895FC01538D448D252F30E0842F90E0EB
:10034000821B930B541710F0CF96089501970895D0
:10035000FC01918D828D981761F0A28DAE0FBF2F99
:10036000B11D5D968C91928D9F5F9F73928F90E0EF
:1003700008958FEF9FEF0895FC01918D828D98175E
:1003800031F0828DE80FF11D858D90E008958FEF9B
:100390009FEF0895FC01918D228D892F90E0805C64
:1003A0009F4F821B91098F739927089583E991E0EC
:1003B0000E94CA0121E0892B09F420E0822F0895D0
:1003C00080E090E0892B29F00E94D60181110C94E5
:1003D00000000895FC01A48DA80FB92FB11DA35AE8
:1003E000BF4F2C91848D90E001968F739927848F55
:1003F000A689B7892C93A089B1898C918370806478
:100400008C93938D848D981306C00288F389E02D18
:1004100080818F7D80830895EF92FF920F931F93C9
:10042000CF93DF93EC0181E0888F9B8D8C8D9813A7
:100430001AC0E889F989808185FF15C09FB7F894B3
:10044000EE89FF896083E889F989808183708064FF
:1004500080839FBF81E090E0DF91CF911F910F914A
:10046000FF90EF900895F62E0B8D10E00F5F1F4F59
:100470000F731127E02E8C8D8E110CC00FB607FC68
:10048000FACFE889F989808185FFF5CFCE010E94F6
:10049000EA01F1CFEB8DEC0FFD2FF11DE35AFF4F79
:1004A000F0829FB7F8940B8FEA89FB898081806284
:1004B000CFCFCF93DF93EC01888D8823B9F0AA8941
:1004C000BB89E889F9898C9185FD03C0808186FD0F
:1004D0000DC00FB607FCF7CF8C9185FFF2CF80815E
:1004E00085FFEDCFCE010E94EA01E9CFDF91CF91E8
:1004F0000895FC0101900020E9F73197AF01481BF6
:10050000590BBC0183E991E00C946C018F929F928E
:10051000AF92BF920F931F93CF93DF93CDB7DEB708
:10052000A1970FB6F894DEBF0FBECDBF19A242301F
:1005300008F44AE08E010F5D1F4F842E912CB12CE0
:10054000A12CA50194010E94980AE62FB901CA01C5
:10055000EA30F4F4E05DD801EE938D01232B242BD7
:10056000252B79F790E080E0109719F0CD010E94DB
:100570007902A1960FB6F894DEBF0FBECDBFDF9112
:10058000CF911F910F91BF90AF909F908F90089542
:10059000E95CE1CF4F925F926F927F928F929F9230
:1005A000AF92BF92CF92DF92EF92FF926B017C01EC
:1005B000AC019B010E945E098823C1F082E191E0B9
:1005C0000E9479027C018EE191E00E9479028E0DF9
:1005D0009F1DFF90EF90DF90CF90BF90AF909F90C6
:1005E0008F907F906F905F904F90089546015701D4
:1005F000E894B7F82FEF3FEF4FE75FE7C501B4018D
:100600000E945E0981110DC02FEF3FEF4FE75FE7BA
:10061000C501B4010E943D0718161CF486E191E063
:10062000CFCF2FEF3FEF4FE75FE4C701B6010E9446
:100630009C0818161CF48AE191E0C2CF2FEF3FEF1F
:100640004FE75FECC701B6010E943D0787FDF3CF7E
:1006500020E030E0A901C701B6010E943D07B12C9E
:10066000A12C87FF0AC06DE283E991E00E940C0291
:100670005C01F7FAF094F7F8F0942AE037ED43EADA
:100680005BE3C701B6010E94D1062B013C010E9429
:10069000BB076B017C010E94EA079B01AC01C3010F
:1006A000B2010E94D0062B013C014AE0C701B6010D
:1006B0000E9486027C01EA0CFB1C6EE283E991E059
:1006C0000E940C02E80EF91E20E030E040E251E406
:1006D000C301B2010E94A1082B013C010E94BB078B
:1006E0004B01B12CA12C4AE0C501B4010E94860245
:1006F000E80EF91EC501B4010E94EA079B01AC0196
:10070000C301B2010E94D00620E030E040E251E493
:100710000E94A1080E94BB0790E080E04AE00E948E
:100720008602E80EF91E4FCF1F920F920FB60F925E
:1007300011242F933F938F939F93AF93BF938091F7
:100740008B0190918C01A0918D01B0918E0130911F
:100750008A0123E0230F2D3758F50196A11DB11D05
:1007600020938A0180938B0190938C01A0938D013B
:10077000B0938E0180918F0190919001A091910191
:10078000B09192010196A11DB11D80938F019093AC
:100790009001A0939101B0939201BF91AF919F916D
:1007A0008F913F912F910F900FBE0F901F90189532
:1007B00026E8230F0296A11DB11DD2CF1F920F92E2
:1007C0000FB60F9211242F933F934F935F936F9324
:1007D0007F938F939F93AF93BF93EF93FF9383E99F
:1007E00091E00E94EA01FF91EF91BF91AF919F913B
:1007F0008F917F916F915F914F913F912F910F90CA
:100800000FBE0F901F9018951F920F920FB60F9268
:1008100011242F938F939F93EF93FF93E091A30164
:10082000F091A4018081E091A901F091AA0182FDDB
:100830001BC090818091AC018F5F8F732091AD01BF
:10084000821741F0E091AC01F0E0ED56FE4F958F3C
:100850008093AC01FF91EF919F918F912F910F9019
:100860000FBE0F901F9018958081F4CFE3E9F1E05F
:100870001382128288EE93E0A0E0B0E08483958337
:10088000A683B78384E091E09183808385EC90E038
:100890009587848784EC90E09787868780EC90E04A
:1008A000918B808B81EC90E0938B828B82EC90E03B
:1008B000958B848B86EC90E0978B868B118E128EB5
:1008C000138E148E10923D020895789484B5826040
:1008D00084BD84B5816084BD85B5826085BD85B5E4
:1008E000816085BD80916E00816080936E00109262
:1008F00081008091810082608093810080918100DD
:10090000816080938100809180008160809380006D
:100910008091B10084608093B1008091B0008160CB
:100920008093B00080917A00846080937A008091F7
:100930007A00826080937A0080917A00816080934F
:100940007A0080917A00806880937A001092C100CA
:10095000E091A301F091A40182E08083E0919F01E6
:10096000F091A0011082E091A101F091A2018FEC21
:1009700080831092AB01E091A701F091A80186E07D
:100980008083E091A501F091A60180818061808340
:10099000E091A501F091A601808188608083E091BB
:1009A000A501F091A601808180688083E091A50176
:1009B000F091A60180818F7D808303E211E090E9B0
:1009C000892E99249394A12CB12C80E0282E80E0CC
:1009D000382E80913D02882309F0F894F801D490D4
:1009E000EFE0F1E08491E82FF0E0EE0FFF1FEC5014
:1009F000FF4FE590F490F8012491EFE0F1E084914D
:100A0000882399F090E0880F991FFC01E651FF4F71
:100A1000A591B491FC01E250FF4F859194918FB75D
:100A2000F8949C91292B2C938FBF80E00E94CD00DD
:100A300062E170E080E090E00E943A0181E00E9473
:100A4000CD00F8014491EFE0F1E024912223C9F0B8
:100A500030E0220F331FF901E651FF4F8591949149
:100A6000F901E250FF4FA591B4915FB7F894EC0102
:100A70003881242F2095322338838C9128232C937E
:100A80005FBF80E293E0F70120812D2129F00197DB
:100A9000D1F72DEF722E53C080E991E0E701288154
:100AA0002D2129F40197D1F79CEF792E48C080E9D8
:100AB00091E0F70120812D2151F00197D1F78BEFC3
:100AC000782E3DC06A2FC1100EC0712C38C0712C19
:100AD000B0E0E0E830E020E080E991E040E951E07A
:100AE00060E0A8E2CA2EE701A881AD2121F56623C6
:100AF00011F1D8E2CD124BC18417950708F4AC016F
:100B0000C501B401641B750B81099109F2E095954B
:100B1000879577956795FA95D1F79B01E69541F40E
:100B2000E72DF0E0E05DFD4FB0877394B0E0E0E8C2
:100B3000CA9480E991E0019729F63EEF732E8091E7
:100B40003D02882309F0789480913802E82EE894D9
:100B5000E7F8E092380280913A02F82EE894F7F82C
:100B6000F0923A026E2D70E090E080E00E94EA0779
:100B7000609330027093310280933202909333027B
:100B80006F2D70E090E080E00E94EA0760933402ED
:100B90007093350280933602909337028091390228
:100BA00090913B02890F8E0D8F0D90913C02891719
:100BB00011F077247A9481E291E00E947902C72CA7
:100BC000072C000CDD08EE08FF084AE060E070E04A
:100BD000CB01772069F06DE283E991E00E940C027D
:100BE00066277727CB016C197D098E099F094AE09A
:100BF0000E94860260913402709135028091360223
:100C0000909137020E94CA0281E391E00E9479022A
:100C100060913002709131028091320290913302E2
:100C20000E94CA0264E670E080E090E00E943A010F
:100C300080E480937C0080917A00806480937A00C5
:100C400080917A0086FDFCCF6091780070917900E8
:100C5000072E000C880B990B0E94EC07609386010D
:100C60007093870180938801909389018DE391E0CF
:100C70000E947902609186017091870180918801BC
:100C8000909189010E94CA0220E030E040EA50E4DD
:100C9000609186017091870180918801909189010E
:100CA0000E94A10820E030EC4FE754E40E94420784
:100CB00060938201709383018093840190938501F6
:100CC0008EE491E00E947902C0908201D09083016D
:100CD000E0908401F0908501A701960160E070E04A
:100CE00080EA90E40E94D0062B013C0120E030E035
:100CF00040EA50E4C701B6010E9442079B01AC01E3
:100D0000C301B2010E94420720E030E04AE754E408
:100D10000E94A1080E94B4079B0170938101609317
:100D2000800182E691E037FD02C081E791E00E94F8
:100D300079028EE191E00E947902609180017091C8
:100D40008101072E000C880B990B0E94EC0722EF03
:100D500035ED43EB5FEB0E940E0924E136E04FE3F3
:100D60005BE40E94A1080E94CA0268EE73E080E082
:100D700090E00E943A012114310409F42ACE0E9425
:100D8000D601882309F425CE0E9400001ECEBA01A8
:100D9000621B730B6817790708F4C0CEBE2BBECE5A
:100DA0005058BB27AA270E94E8060C9462080E94AC
:100DB000540838F00E945B0820F039F49F3F19F482
:100DC00026F40C9451080EF4E095E7FB0C944B08C4
:100DD000E92F0E94730858F3BA1762077307840754
:100DE000950720F079F4A6F50C9495080EF4E0959B
:100DF0000B2EBA2FA02D0B01B90190010C01CA01D5
:100E0000A0011124FF27591B99F0593F50F4503E7F
:100E100068F11A16F040A22F232F342F4427585F71
:100E2000F3CF469537952795A795F0405395C9F789
:100E30007EF41F16BA0B620B730B840BBAF0915041
:100E4000A1F0FF0FBB1F661F771F881FC2F70EC0E0
:100E5000BA0F621F731F841F48F4879577956795B3
:100E6000B795F7959E3F08F0B0CF9395880F08F09F
:100E70009927EE0F9795879508950E94270808F403
:100E800081E008950E9456070C9462080E945B0856
:100E900058F00E94540840F029F45F3F29F00C9468
:100EA0004B0851110C9496080C9451080E94730839
:100EB00068F39923B1F3552391F3951B550BBB2789
:100EC000AA2762177307840738F09F5F5F4F220FCE
:100ED000331F441FAA1FA9F335D00E2E3AF0E0E8C5
:100EE00032D091505040E695001CCAF72BD0FE2F0F
:100EF00029D0660F771F881FBB1F261737074807A3
:100F0000AB07B0E809F0BB0B802DBF01FF2793585A
:100F10005F4F3AF09E3F510578F00C944B080C94CB
:100F200096085F3FE4F3983ED4F3869577956795EE
:100F3000B795F7959F5FC9F7880F911D969587958F
:100F400097F90895E1E0660F771F881FBB1F6217AE
:100F500073078407BA0720F0621B730B840BBA0B6C
:100F6000EE1F88F7E09508950E94BB076894B111C1
:100F70000C94960808950E947B0888F09F5798F07B
:100F8000B92F9927B751B0F0E1F0660F771F881F8E
:100F9000991F1AF0BA95C9F714C0B13091F00E94A8
:100FA0009508B1E008950C949508672F782F88274D
:100FB000B85F39F0B93FCCF3869577956795B395CF
:100FC000D9F73EF490958095709561957F4F8F4F3E
:100FD0009F4F0895E89409C097FB3EF49095809543
:100FE000709561957F4F8F4F9F4F9923A9F0F92FEF
:100FF00096E9BB279395F695879577956795B7956D
:10100000F111F8CFFAF4BB0F11F460FF1BC06F5F52
:101010007F4F8F4F9F4F16C0882311F096E911C064
:10102000772321F09EE8872F762F05C0662371F085
:1010300096E8862F70E060E02AF09A95660F771F99
:10104000881FDAF7880F9695879597F90895990F75
:101050000008550FAA0BE0E8FEEF16161706E80782
:10106000F907C0F012161306E407F50798F0621BA3
:10107000730B840B950B39F40A2661F0232B242B78
:10108000252B21F408950A2609F4A140A6958FEF97
:10109000811D811D089597F99F6780E870E060E0E9
:1010A00008959FEF80EC089500240A941616170601
:1010B00018060906089500240A9412161306140649
:1010C00005060895092E0394000C11F4882352F0AC
:1010D000BB0F40F4BF2B11F460FF04C06F5F7F4F64
:1010E0008F4F9F4F089557FD9058440F551F59F04B
:1010F0005F3F71F04795880F97FB991F61F09F3F05
:1011000079F087950895121613061406551FF2CF2D
:101110004695F1DF08C0161617061806991FF1CF7D
:1011200086957105610508940895E894BB276627A4
:101130007727CB0197F908950E94270808F48FEFCD
:1011400008950E94B4080C9462080E94540838F074
:101150000E945B0820F0952311F00C944B080C942E
:10116000510811240C9496080E94730870F3959FFF
:10117000C1F3950F50E0551F629FF001729FBB278E
:10118000F00DB11D639FAA27F00DB11DAA1F649F2A
:101190006627B00DA11D661F829F2227B00DA11DDD
:1011A000621F739FB00DA11D621F839FA00D611D63
:1011B000221F749F3327A00D611D231F849F600D84
:1011C000211D822F762F6A2F11249F5750409AF0AD
:1011D000F1F088234AF0EE0FFF1FBB1F661F771F39
:1011E000881F91505040A9F79E3F510580F00C9404
:1011F0004B080C9496085F3FE4F3983ED4F3869531
:1012000077956795B795F795E7959F5FC1F7FE2BA3
:10121000880F911D9695879597F90895FA01EE0F1D
:10122000FF1F309621053105A1F16115710561F4AB
:101230008038BFE39B0749F168949038810561F0DD
:101240008038BFEF9B0741F099234AF5FF3FE10546
:101250003105210519F1E8940894E795D901AA23ED
:1012600029F4AB2FBE2FF85FD0F310C0FF5F70F4EE
:10127000A695E0F7F73950F019F0FF3A38F49F7768
:101280009F930DD00F9007FC9058089546F00C9452
:10129000510860E070E080E89FE308954FE79F7792
:1012A0005F934F933F932F930E940E0A2F913F918C
:1012B0004F915F910E94A1080C946B090E9427082E
:1012C000880B990B089529F416F00C944B080C9494
:1012D00095080C9451080E947B08A8F39638A0F753
:1012E00007F80F92E8942BE33AEA48EB5FE70E9495
:1012F000B7080F920F920F924DB75EB70F920E94F0
:10130000560AE8E6F0E00E949D094F915F91EF9147
:10131000FF91E595EE1FFF1F49F0FE57E068442757
:10132000EE0F441FFA95E1F74195550B0E94D00945
:101330000F9007FE0C94C4090895DF93CF931F9379
:101340000F93FF92EF92DF927B018C01689406C0AD
:10135000DA2EEF010E94B408FE01E894A5912591D0
:10136000359145915591A6F3EF010E94E806FE01E3
:101370009701A801DA9469F7DF90EF90FF900F9141
:101380001F91CF91DF9108959B01AC0160E070E067
:1013900080E89FE30C9442070C944B080C948A0A53
:1013A0000E947B08D8F39923C9F3940F511DA3F32E
:1013B0009150504094F059F0882332F0660F771F17
:1013C000881F91505040C1F79E3F51052CF7880F60
:1013D000911D9695879597F908955F3FACF0983EDB
:1013E0009CF0BB27869577956795B79508F4B16013
:1013F0009395C1F7BB0F58F711F460FFE8CF6F5F0B
:101400007F4F8F4F9F4FE3CF0C94960816F00C94AC
:101410008A0A0C94510868940C944B080E947B082B
:10142000A8F39923C1F3AEF3DF93CF931F930F93E8
:10143000FF92C92FDD2788232AF02197660F771F97
:10144000881FDAF720E030E040E85FEB9FE388395F
:1014500020F0803E38F021968F770E94D106E0E997
:10146000F0E004C00E94D106EDEBF0E00E949D097F
:101470008B01BE01EC01FB2E6F5771097595771F2B
:10148000880B990B0E94EC0728E132E741E35FE308
:101490000E94B408AF2D9801AE01FF900F911F91EB
:1014A000CF91DF910E94E8060C946208FA01DC01FA
:1014B000AA0FBB1F9B01AC01BF5728F4222733277B
:1014C0004427507820C0B75190F4AB2F00244695A4
:1014D00037952795011CA395D2F3002071F0220FB8
:1014E000331F441FB395DAF30ED00C94D00661304D
:1014F0007105A0E88A07B94630F49B01AC01662764
:10150000772788279078309621F020833183428393
:10151000538308959F3F31F0915020F4879577953C
:101520006795B795880F911D9695879597F90895BA
:10153000A1E21A2EAA1BBB1BFD010DC0AA1FBB1FD7
:10154000EE1FFF1FA217B307E407F50720F0A21B49
:10155000B30BE40BF50B661F771F881F991F1A94B6
:1015600069F760957095809590959B01AC01BD01E0
:10157000CF010895EE0FFF1F0590F491E02D09941F
:10158000F894FFCF000000000C026C019901590291
:10159000CA01A801BC016E616E00696E66006F76BB
:1015A00066000D0A0054656D706572617475726530
:1015B00065203D200048756D6964697479203D207F
:1015C000006469676974616C2076616C7565203DA3
:1015D00020002020616E616C6F6720766F6C7461F3
:1015E0006765203D2000476F6F64204E696768740F
:1015F0002E2E2E2E00476F6F64204461792E2E2EE2
:041600002E2E2E005C
:107E0000112484B714BE81FFF0D085E080938100F7
:107E100082E08093C00088E18093C10086E0809377
:107E2000C20080E18093C4008EE0C9D0259A86E02C
:107E300020E33CEF91E0309385002093840096BBD3
:107E4000B09BFECF1D9AA8958150A9F7CC24DD24C4
:107E500088248394B5E0AB2EA1E19A2EF3E0BF2EE7
:107E6000A2D0813461F49FD0082FAFD0023811F036
:107E7000013811F484E001C083E08DD089C08234E0
:107E800011F484E103C0853419F485E0A6D080C0E4
:107E9000853579F488D0E82EFF2485D0082F10E0AE
:107EA000102F00270E291F29000F111F8ED06801E7
:107EB0006FC0863521F484E090D080E0DECF843638
:107EC00009F040C070D06FD0082F6DD080E0C81688
:107ED00080E7D80618F4F601B7BEE895C0E0D1E017
:107EE00062D089930C17E1F7F0E0CF16F0E7DF06D8
:107EF00018F0F601B7BEE89568D007B600FCFDCFD4
:107F0000A601A0E0B1E02C9130E011968C91119780
:107F100090E0982F8827822B932B1296FA010C0160
:107F200087BEE89511244E5F5F4FF1E0A038BF0790
:107F300051F7F601A7BEE89507B600FCFDCF97BE46
:107F4000E89526C08437B1F42ED02DD0F82E2BD052
:107F50003CD0F601EF2C8F010F5F1F4F84911BD097
:107F6000EA94F801C1F70894C11CD11CFA94CF0C13
:107F7000D11C0EC0853739F428D08EE10CD085E9AC
:107F80000AD08FE07ACF813511F488E018D01DD067
:107F900080E101D065CF982F8091C00085FFFCCF94
:107FA0009093C60008958091C00087FFFCCF809118
:107FB000C00084FD01C0A8958091C6000895E0E648
:107FC000F0E098E1908380830895EDDF803219F02E
:107FD00088E0F5DFFFCF84E1DECF1F93182FE3DFCA
:107FE0001150E9F7F2DF1F91089580E0E8DFEE27F6
:047FF000FF270994CA
:027FFE00040479
:00000001FF
