:020000040000FA
:100000000C94A3000C94CB000C94CB000C94CB006C
:100010000C94CB000C94CB000C94CB000C94CB0034
:100020000C94CB000C94CB000C94CB000C94CB0024
:100030000C94CB000C94CB000C94CB000C94CB0014
:100040000C9439050C94CB000C94A9050C948305F1
:100050000C94CB000C94CB000C94CB000C94CB00F4
:100060000C94CB000C94CB0007634236B79BD8A707
:100070001A39685618AEBAAB558C1D3CB7CC5763CD
:10008000BD6DEDFD753EF6177231BF000000803F7B
:1000900008000000BE922449123EABAAAA2ABECD97
:1000A000CCCC4C3E00000080BEABAAAAAA3E000009
:1000B0000000BF000000803F000000000008417801
:1000C000D3BB4387D1133D190E3CC3BD4282AD2B38
:1000D0003E68EC8276BED98FE1A93E4C80EFFFBE30
:1000E00001C4FF7F3F00000000000000000023006B
:1000F0002600290000000000240027002A0000003C
:100100000000250028002B00040404040404040457
:1001100002020202020203030303030301020408B2
:100120001020408001020408102001020408102061
:1001300000000008000201000003040700000000A6
:1001400000000000DB0511241FBECFEFD8E0DEBFAA
:10015000CDBF11E0A0E0B1E0E0EBF8E102C0059016
:100160000D92AE37B107D9F722E0AEE7B1E001C09A
:100170001D92AE34B207E1F710E0C3EAD0E004C04C
:100180002197FE010E94500CC23AD107C9F70E9484
:1001900027060C94560C0C94000090E0FC01E05DE6
:1001A000FE4F2491FC01E45EFE4F3491FC01E85FB8
:1001B000FE4FE491EE23C9F0222339F0233001F100
:1001C000A8F4213019F1223029F1F0E0EE0FFF1FE1
:1001D000E250FF4FA591B4918FB7F894EC91611163
:1001E00026C030953E233C938FBF08952730A9F059
:1001F0002830C9F0243049F7809180008F7D03C0FA
:10020000809180008F7780938000DFCF84B58F77D7
:1002100084BDDBCF84B58F7DFBCF8091B0008F771D
:100220008093B000D2CF8091B0008F7DF9CF3E2B6C
:10023000DACFCF93DF9390E0FC01E45EFE4F249190
:10024000885F9E4FFC0184918823D1F090E0880F55
:10025000991FFC01EC50FF4FA591B491FC01E250B5
:10026000FF4FC591D49161110EC09FB7F8948C9146
:10027000E22FE0958E238C932881E223E8839FBFB1
:10028000DF91CF9108958FB7F894EC91E22BEC9326
:100290008FBFF6CF8E3008F08E50877080648093C9
:1002A0007C0080917A00806480937A0080917A004B
:1002B00086FDFCCF809178009091790008953FB73A
:1002C000F8948091870190918801A0918901B09163
:1002D0008A0126B5A89B05C02F3F19F00196A11DE4
:1002E000B11D3FBFBA2FA92F982F8827BC01CD0180
:1002F000620F711D811D911D42E0660F771F881FDF
:10030000991F4A95D1F708958F929F92AF92BF920D
:10031000CF92DF92EF92FF924B015C010E945F014E
:100320006B017C010E945F016C197D098E099F0998
:10033000683E734081059105A8F321E0821A910877
:10034000A108B10888EEC80E83E0D81EE11CF11C9C
:1003500081149104A104B10429F7FF90EF90DF907C
:10036000CF90BF90AF909F908F900895AF92BF9223
:10037000CF92DF92EF92FF920F931F93CF93DF9371
:100380006C017B018B01040F151FEB015E01AE18A0
:10039000BF08C017D10759F06991D601ED91FC91C2
:1003A0000190F081E02DC6010995892B79F7C501EF
:1003B000DF91CF911F910F91FF90EF90DF90CF9041
:1003C000BF90AF900895FC01538D448D252F30E0F0
:1003D000842F90E0821B930B541710F0CF96089552
:1003E00001970895FC01918D828D981761F0A28D7F
:1003F000AE0FBF2FB11D5D968C91928D9F5F9F7345
:10040000928F90E008958FEF9FEF0895FC01918DFA
:10041000828D981731F0828DE80FF11D858D90E067
:1004200008958FEF9FEF0895FC01918D228D892F04
:1004300090E0805C9F4F821B91098F7399270895EC
:100440008BE891E00E94140221E0892B09F420E05E
:10045000822F089580E090E0892B29F00E942002ED
:1004600081110C9400000895FC01A48DA80FB92FF0
:10047000B11DA35ABF4F2C91848D90E001968F73CC
:100480009927848FA689B7892C93A089B1898C91EB
:10049000837080648C93938D848D981306C002883A
:1004A000F389E02D80818F7D80830895EF92FF9204
:1004B0000F931F93CF93DF93EC0181E0888F9B8D87
:1004C0008C8D98131AC0E889F989808185FF15C041
:1004D0009FB7F894EE89FF896083E889F989808164
:1004E0008370806480839FBF81E090E0DF91CF9133
:1004F0001F910F91FF90EF900895F62E0B8D10E055
:100500000F5F1F4F0F731127E02E8C8D8E110CC0C3
:100510000FB607FCFACFE889F989808185FFF5CF0E
:10052000CE010E943402F1CFEB8DEC0FFD2FF11DB7
:10053000E35AFF4FF0829FB7F8940B8FEA89FB894B
:1005400080818062CFCFCF93DF93EC01888D8823A9
:10055000B9F0AA89BB89E889F9898C9185FD03C026
:10056000808186FD0DC00FB607FCF7CF8C9185FF0B
:10057000F2CF808185FFEDCFCE010E943402E9CF1A
:10058000DF91CF910895089590E080E00895FC01F7
:1005900001900020E9F73197AF01481B590BBC01CE
:1005A0008BE891E00C94B6018F929F92AF92BF922C
:1005B0000F931F93CF93DF93CDB7DEB7A1970FB6FD
:1005C000F894DEBF0FBECDBF19A2423008F44AE056
:1005D0008E010F5D1F4F842E912CB12CA12CA501F3
:1005E00094010E942E0CE62FB901CA01EA30F4F4FE
:1005F000E05DD801EE938D01232B242B252B79F779
:1006000090E080E0109719F0CD010E94C702A196FA
:100610000FB6F894DEBF0FBECDBFDF91CF911F9113
:100620000F91BF90AF909F908F900895E95CE1CFBC
:100630004F925F926F927F928F929F92AF92BF92F2
:10064000CF92DF92EF92FF926B017C01AC019B0194
:100650000E94F40A8823C1F08EE191E00E94C70253
:100660007C018AE291E00E94C7028E0D9F1DFF90DF
:10067000EF90DF90CF90BF90AF909F908F907F9042
:100680006F905F904F90089546015701E894B7F836
:100690002FEF3FEF4FE75FE7C501B4010E94F40A77
:1006A00081110DC02FEF3FEF4FE75FE7C501B401A8
:1006B0000E94D30818161CF482E291E0CFCF2FEFEE
:1006C0003FEF4FE75FE4C701B6010E94320A1816F8
:1006D0001CF486E291E0C2CF2FEF3FEF4FE75FECD3
:1006E000C701B6010E94D30887FDF3CF20E030E0B8
:1006F000A901C701B6010E94D308B12CA12C87FF24
:100700000AC06DE28BE891E00E9456025C01F7FAA4
:10071000F094F7F8F0942AE037ED43EA5BE3C70181
:10072000B6010E9467082B013C010E9451096B0130
:100730007C010E9480099B01AC01C301B2010E94AF
:1007400066082B013C014AE0C701B6010E94D402B1
:100750007C01EA0CFB1C6EE28BE891E00E945602E1
:10076000E80EF91E20E030E040E251E4C301B2019E
:100770000E94370A2B013C010E9451094B01B12C08
:10078000A12C4AE0C501B4010E94D402E80EF91E72
:10079000C501B4010E9480099B01AC01C301B201F3
:1007A0000E94660820E030E040E251E40E94370AEF
:1007B0000E94510990E080E04AE00E94D402E80ED5
:1007C000F91E4FCFCF93DF93EC0160E08E810E9442
:1007D000CD0061E08E810E94CD0060E08E810E949C
:1007E000CD008BE891E00197F1F7DF91CF9108956B
:1007F000CF92DF92EF92FF920F931F93CF93DF93ED
:100800006C017C0187E0E80EF11CD0E0C0E0062F0F
:1008100010E0B8010C2E02C0759567950A94E2F7B6
:100820006170F70181917F010E94CD002196C43053
:10083000D10579F7C601DF91CF911F910F91FF90FC
:10084000EF90DF90CF900C94E203CF92DF92EF9283
:10085000FF920F931F93CF93DF93EC01F62E642F3B
:100860008C810E94CD008D818F3F19F060E00E9445
:10087000CD000F2D10E08F8584FF25C06E0187E02D
:10088000C80ED11CF12CE12CB8010E2C02C07595BC
:1008900067950A94E2F76170F60181916F010E94F9
:1008A000CD00FFEFEF1AFF0A88E0E816F10461F7C8
:1008B000CE01DF91CF911F910F91FF90EF90DF90CC
:1008C000CF900C94E203B80184E0759567958A9502
:1008D000E1F7CE010E94F8036F2DCE01DF91CF9199
:1008E0001F910F91FF90EF90DF90CF900C94F80341
:1008F000CF93DF93823029F49091370298609093E0
:10090000370280933B0210923C0280E480933D02C8
:1009100080E180933E0280E580933F0261E0809118
:100920002C020E94190180912D028F3F19F061E085
:100930000E94190161E080912E020E941901C8E213
:10094000D2E09E01285232408091370284FD0BC0D4
:1009500084E090E021962817390744F461E08E8105
:100960000E941901EECF88E090E0F4CF8BE39DE088
:100970000197F1F760E080912C020E94CD0060E0C9
:1009800080912E020E94CD0080912D028F3F19F0A0
:1009900060E00E94CD006091370264FD45C063E0D5
:1009A00088E292E00E94F803CBE4D6E4CE010197FE
:1009B000F1F763E088E292E00E94F8032197F1F7F3
:1009C00063E088E292E00E94F80383E592E00197F9
:1009D000F1F762E088E292E00E94F803609137024A
:1009E000606240E088E292E00E94250484E0809307
:1009F000380240E06CE088E292E00E94250440E08A
:100A000061E088E292E00E9425048BE39FE1019778
:100A1000F1F782E08093390240E066E088E292E0FC
:100A2000DF91CF910C942504606240E088E292E06F
:100A30000E9425048BE496E40197F1F76091370258
:100A4000606240E088E292E00E94250483E592E043
:100A50000197F1F760913702606240E088E292E02E
:100A60000E942504BBCF41E00E94250481E090E074
:100A700008951F920F920FB60F9211242F933F9358
:100A80008F939F93AF93BF93809183019091840143
:100A9000A0918501B09186013091820123E0230F5E
:100AA0002D3758F50196A11DB11D20938201809329
:100AB000830190938401A0938501B0938601809176
:100AC000870190918801A0918901B0918A010196D6
:100AD000A11DB11D8093870190938801A093890186
:100AE000B0938A01BF91AF919F918F913F912F91C8
:100AF0000F900FBE0F901F90189526E8230F0296B7
:100B0000A11DB11DD2CF1F920F920FB60F921124CB
:100B10002F933F934F935F936F937F938F939F9305
:100B2000AF93BF93EF93FF938BE891E00E94340261
:100B3000FF91EF91BF91AF919F918F917F916F91B5
:100B40005F914F913F912F910F900FBE0F901F908B
:100B500018951F920F920FB60F9211242F938F9317
:100B60009F93EF93FF93E0919B01F0919C01808113
:100B7000E091A101F091A20182FD1BC090818091C2
:100B8000A4018F5F8F732091A501821741F0E0913E
:100B9000A401F0E0E557FE4F958F8093A401FF91EB
:100BA000EF919F918F912F910F900FBE0F901F90FB
:100BB00018958081F4CFEBE8F1E01382128288EE81
:100BC00093E0A0E0B0E084839583A683B78384E0BC
:100BD00091E09183808385EC90E09587848784EC15
:100BE00090E09787868780EC90E0918B808B81ECFA
:100BF00090E0938B828B82EC90E0958B848B86ECDB
:100C000090E0978B868B118E128E138E148E10921D
:100C10004D02E8E2F2E01382128286E191E09183D4
:100C2000808388E084838FEF858389E086838AE0F0
:100C300087838BE080878CE081878DE082871386B5
:100C4000148615861686178681E00C9478047894AD
:100C500084B5826084BD84B5816084BD85B58260C1
:100C600085BD85B5816085BD80916E008160809372
:100C70006E001092810080918100826080938100DB
:100C800080918100816080938100809180008160EB
:100C9000809380008091B10084608093B100809146
:100CA000B00081608093B00080917A00846080936E
:100CB0007A0080917A00826080937A0080917A0035
:100CC000816080937A0080917A00806880937A00B6
:100CD0001092C100E0919B01F0919C0182E0808321
:100CE000E0919701F09198011082E0919901F091C3
:100CF0009A018FEC80831092A301E0919F01F09103
:100D0000A00186E08083E0919D01F0919E018081A9
:100D100080618083E0919D01F0919E0180818860D7
:100D20008083E0919D01F0919E01808180688083A5
:100D3000E0919D01F0919E0180818F7D808382E012
:100D40000E94780460ED77E080E090E00E948401EA
:100D5000BEE12B2EB1E03B2E0AE011E0C0E98C2E63
:100D600099249394A12CB12C80914D02882309F0F1
:100D7000F894F101D490F8018491E82FF0E0EE0F9F
:100D8000FF1FE651FF4FE590F49061E082E00E9482
:100D9000190160E082E00E94CD0062E170E080E035
:100DA00090E00E94840161E082E00E94CD0060E05A
:100DB00082E00E94190180E293E0E70128812D2161
:100DC00009F4E9C00197C9F780914D02811139C139
:100DD000809148028F778093480260914A02F62EF4
:100DE000E894F7F8F0924A02682F70E090E080E013
:100DF0000E948009609340027093410280934202F6
:100E0000909343026F2D70E090E080E00E94800993
:100E10006093440270934502809346029093470288
:100E200087E491E00E94C7026091440270914502FC
:100E300080914602909147020E94180368EE73E089
:100E400080E090E00E94840184E591E00E94C70266
:100E50006091400270914102809142029091430260
:100E60000E94180368EE73E080E090E00E94840125
:100E70008EE00E944A01BC01990F880B990B0E94D9
:100E8000820920E030E040EA50E40E94370A20E086
:100E900030EC4FE754E40E94D8086B017C01AC01B0
:100EA0009B0160E070E080EA90E40E9466082B01FC
:100EB0003C0123E333E343EB50E4C701B6010E9456
:100EC000D8089B01AC01C301B2010E94D80820E000
:100ED00030E04AE754E40E94370A0E944A0977FF4B
:100EE000B2C010927E0110927F0110928001109288
:100EF00081018EE591E00E94C70260917E017091B0
:100F00007F0180918001909181010E94180368EE19
:100F100073E080E090E00E9484018FE00E944A012B
:100F20007C0183E691E00E94C702B701FF0C880BA9
:100F3000990B0E94820920E030EC4FE754E40E94B4
:100F4000D80820E030E048EC52E40E94370A9B01C8
:100F5000AC0160E070E088EC92E40E9466080E94B8
:100F6000180368EE73E080E090E00E94840180E165
:100F70000E944A018B3E91050CF480C028E3E22ECA
:100F800021E0F22E843292400CF07CC08DE2E82EFB
:100F900081E0F82E77C080E991E0F70120812D21D2
:100FA00019F40197D1F710CF80E991E0E70128818A
:100FB0002D2191F10197D1F707CF6A2FCC2009F4A9
:100FC00003CFE701A881AD2121F5662311F1D8E215
:100FD000CD122FC08417950708F4AC01C501B401E8
:100FE000641B750B8109910932E09595879577957A
:100FF00067953A95D1F79B01E69541F4E72DF0E02E
:10100000E05CFD4FB0877394B0E0E0E8CA9480E9FB
:1010100091E0019791F6D8CE712CB0E0E0E830E095
:1010200020E080E991E040E951E060E078E2C72EFD
:10103000C8CFBA01621B730B68177907E8F2BE2BA1
:10104000DBCF7894C5CE072E000C880B990B0E943D
:10105000820922EF35ED43EB5FEB0E94A40A24E105
:1010600036E04FE35BE40E94370A60937E017093A1
:101070007F0180938001909381013BCF93E4E92E1F
:1010800091E0F92E81E791E00E94C702C7010E941A
:10109000C7028AE291E00E94C70268EE73E080E036
:1010A00090E00E94840160EE73E984E090E00E9489
:1010B000840180E090E0892B09F456CE0E94200242
:1010C000882309F451CE0E9400004ECE5058BB2711
:1010D000AA270E947E080C94F8090E94EA0938F0B9
:1010E0000E94F10920F039F49F3F19F426F40C9482
:1010F000E7090EF4E095E7FB0C94E109E92F0E9463
:10110000090A58F3BA17620773078407950720F096
:1011100079F4A6F50C942B0A0EF4E0950B2EBA2F59
:10112000A02D0B01B90190010C01CA01A0011124ED
:10113000FF27591B99F0593F50F4503E68F11A1699
:10114000F040A22F232F342F4427585FF3CF46952A
:1011500037952795A795F0405395C9F77EF41F164C
:10116000BA0B620B730B840BBAF09150A1F0FF0F16
:10117000BB1F661F771F881FC2F70EC0BA0F621F02
:10118000731F841F48F4879577956795B795F795F2
:101190009E3F08F0B0CF9395880F08F09927EE0F87
:1011A0009795879508950E94BD0908F481E00895F8
:1011B0000E94EC080C94F8090E94F10958F00E9472
:1011C000EA0940F029F45F3F29F00C94E10951113C
:1011D0000C942C0A0C94E7090E94090A68F39923DD
:1011E000B1F3552391F3951B550BBB27AA27621723
:1011F0007307840738F09F5F5F4F220F331F441F30
:10120000AA1FA9F335D00E2E3AF0E0E832D0915063
:101210005040E695001CCAF72BD0FE2F29D0660F50
:10122000771F881FBB1F261737074807AB07B0E893
:1012300009F0BB0B802DBF01FF2793585F4F3AF099
:101240009E3F510578F00C94E1090C942C0A5F3F05
:10125000E4F3983ED4F3869577956795B795F7951F
:101260009F5FC9F7880F911D9695879597F9089507
:10127000E1E0660F771F881FBB1F621773078407A3
:10128000BA0720F0621B730B840BBA0BEE1F88F7B2
:10129000E09508950E9451096894B1110C942C0AAC
:1012A00008950E94110A88F09F5798F0B92F992746
:1012B000B751B0F0E1F0660F771F881F991F1AF041
:1012C000BA95C9F714C0B13091F00E942B0AB1E071
:1012D00008950C942B0A672F782F8827B85F39F070
:1012E000B93FCCF3869577956795B395D9F73EF4DA
:1012F00090958095709561957F4F8F4F9F4F089582
:10130000E89409C097FB3EF490958095709561959F
:101310007F4F8F4F9F4F9923A9F0F92F96E9BB2755
:101320009395F695879577956795B795F111F8CFD1
:10133000FAF4BB0F11F460FF1BC06F5F7F4F8F4F3C
:101340009F4F16C0882311F096E911C0772321F032
:101350009EE8872F762F05C0662371F096E8862FCA
:1013600070E060E02AF09A95660F771F881FDAF721
:10137000880F9695879597F90895990F0008550F4E
:10138000AA0BE0E8FEEF16161706E807F907C0F00B
:1013900012161306E407F50798F0621B730B840B13
:1013A000950B39F40A2661F0232B242B252B21F4ED
:1013B00008950A2609F4A140A6958FEF811D811D8D
:1013C000089597F99F6780E870E060E008959FEFC7
:1013D00080EC089500240A941616170618060906CC
:1013E000089500240A94121613061406050608959B
:1013F000092E0394000C11F4882352F0BB0F40F423
:10140000BF2B11F460FF04C06F5F7F4F8F4F9F4F62
:10141000089557FD9058440F551F59F05F3F71F0E4
:101420004795880F97FB991F61F09F3F79F087954B
:101430000895121613061406551FF2CF4695F1DFD4
:1014400008C0161617061806991FF1CF8695710564
:10145000610508940895E894BB2766277727CB0198
:1014600097F908950E94BD0908F48FEF08950E942E
:101470004A0A0C94F8090E94EA0938F00E94F1091E
:1014800020F0952311F00C94E1090C94E709112444
:101490000C942C0A0E94090A70F3959FC1F3950FD2
:1014A00050E0551F629FF001729FBB27F00DB11DE8
:1014B000639FAA27F00DB11DAA1F649F6627B00D78
:1014C000A11D661F829F2227B00DA11D621F739F61
:1014D000B00DA11D621F839FA00D611D221F749F6F
:1014E0003327A00D611D231F849F600D211D822FB6
:1014F000762F6A2F11249F5750409AF0F1F08823DD
:101500004AF0EE0FFF1FBB1F661F771F881F915009
:101510005040A9F79E3F510580F00C94E1090C94CE
:101520002C0A5F3FE4F3983ED4F386957795679550
:10153000B795F795E7959F5FC1F7FE2B880F911D33
:101540009695879597F90895FA01EE0FFF1F30964B
:1015500021053105A1F16115710561F48038BFE302
:101560009B0749F168949038810561F08038BFEF9E
:101570009B0741F099234AF5FF3FE105310521051D
:1015800019F1E8940894E795D901AA2329F4AB2F1F
:10159000BE2FF85FD0F310C0FF5F70F4A695E0F7A0
:1015A000F73950F019F0FF3A38F49F779F930DD038
:1015B0000F9007FC9058089546F00C94E70960E0FE
:1015C00070E080E89FE308954FE79F775F934F9324
:1015D0003F932F930E94A40B2F913F914F915F91C6
:1015E0000E94370A0C94010B0E94BD09880B990BCD
:1015F000089529F416F00C94E1090C942B0A0C942C
:10160000E7090E94110AA8F39638A0F707F80F928D
:10161000E8942BE33AEA48EB5FE70E944D0A0F9209
:101620000F920F924DB75EB70F920E94EC0BE8E657
:10163000F0E00E94330B4F915F91EF91FF91E595A0
:10164000EE1FFF1F49F0FE57E0684427EE0F441FCE
:10165000FA95E1F74195550B0E94660B0F9007FE36
:101660000C945A0B0895DF93CF931F930F93FF921F
:10167000EF92DF927B018C01689406C0DA2EEF01B5
:101680000E944A0AFE01E894A59125913591459161
:101690005591A6F3EF010E947E08FE019701A80173
:1016A000DA9469F7DF90EF90FF900F911F91CF913F
:1016B000DF9108959B01AC0160E070E080E89FE35A
:1016C0000C94D8080C94E1090C94200C0E94110A87
:1016D000D8F39923C9F3940F511DA3F391505040AF
:1016E00094F059F0882332F0660F771F881F9150CD
:1016F0005040C1F79E3F51052CF7880F911D9695DC
:10170000879597F908955F3FACF0983E9CF0BB2712
:10171000869577956795B79508F4B1609395C1F76D
:10172000BB0F58F711F460FFE8CF6F5F7F4F8F4F0B
:101730009F4FE3CF0C942C0A16F00C94200C0C94C1
:10174000E70968940C94E1090E94110AA8F399230F
:10175000C1F3AEF3DF93CF931F930F93FF92C92F83
:10176000DD2788232AF02197660F771F881FDAF775
:1017700020E030E040E85FEB9FE3883920F0803ED6
:1017800038F021968F770E946708E0E9F0E004C006
:101790000E946708EDEBF0E00E94330B8B01BE0165
:1017A000EC01FB2E6F5771097595771F880B990B0C
:1017B0000E94820928E132E741E35FE30E944A0A7E
:1017C000AF2D9801AE01FF900F911F91CF91DF9146
:1017D0000E947E080C94F809FA01DC01AA0FBB1FD5
:1017E0009B01AC01BF5728F42227332744275078A8
:1017F00020C0B75190F4AB2F00244695379527951C
:10180000011CA395D2F3002071F0220F331F441F57
:10181000B395DAF30ED00C94660861307105A0E838
:101820008A07B94630F49B01AC01662777278827E1
:101830009078309621F0208331834283538308953A
:101840009F3F31F0915020F4879577956795B79534
:10185000880F911D9695879597F90895A1E21A2E04
:10186000AA1BBB1BFD010DC0AA1FBB1FEE1FFF1F44
:10187000A217B307E407F50720F0A21BB30BE40B94
:10188000F50B661F771F881F991F1A9469F76095DB
:101890007095809590959B01AC01BD01CF01089595
:1018A000EE0FFF1F0590F491E02D0994F894FFCFFF
:1018B000000000005602B601E301A3021402F20187
:1018C0000602000000003305B601C402C3026E61C7
:1018D0006E00696E66006F7666000D0A004C6967DF
:1018E0006874205261696E004865617679205261A2
:1018F000696E004472790074656D7065726174750B
:1019000072653A0068756D69646974793A006C753E
:10191000783A00736F696C4D6F6973747572653ACC
:0E192000007261696E5374617475733A000051
:107E0000112484B714BE81FFF0D085E080938100F7
:107E100082E08093C00088E18093C10086E0809377
:107E2000C20080E18093C4008EE0C9D0259A86E02C
:107E300020E33CEF91E0309385002093840096BBD3
:107E4000B09BFECF1D9AA8958150A9F7CC24DD24C4
:107E500088248394B5E0AB2EA1E19A2EF3E0BF2EE7
:107E6000A2D0813461F49FD0082FAFD0023811F036
:107E7000013811F484E001C083E08DD089C08234E0
:107E800011F484E103C0853419F485E0A6D080C0E4
:107E9000853579F488D0E82EFF2485D0082F10E0AE
:107EA000102F00270E291F29000F111F8ED06801E7
:107EB0006FC0863521F484E090D080E0DECF843638
:107EC00009F040C070D06FD0082F6DD080E0C81688
:107ED00080E7D80618F4F601B7BEE895C0E0D1E017
:107EE00062D089930C17E1F7F0E0CF16F0E7DF06D8
:107EF00018F0F601B7BEE89568D007B600FCFDCFD4
:107F0000A601A0E0B1E02C9130E011968C91119780
:107F100090E0982F8827822B932B1296FA010C0160
:107F200087BEE89511244E5F5F4FF1E0A038BF0790
:107F300051F7F601A7BEE89507B600FCFDCF97BE46
:107F4000E89526C08437B1F42ED02DD0F82E2BD052
:107F50003CD0F601EF2C8F010F5F1F4F84911BD097
:107F6000EA94F801C1F70894C11CD11CFA94CF0C13
:107F7000D11C0EC0853739F428D08EE10CD085E9AC
:107F80000AD08FE07ACF813511F488E018D01DD067
:107F900080E101D065CF982F8091C00085FFFCCF94
:107FA0009093C60008958091C00087FFFCCF809118
:107FB000C00084FD01C0A8958091C6000895E0E648
:107FC000F0E098E1908380830895EDDF803219F02E
:107FD00088E0F5DFFFCF84E1DECF1F93182FE3DFCA
:107FE0001150E9F7F2DF1F91089580E0E8DFEE27F6
:047FF000FF270994CA
:027FFE00040479
:00000001FF
